{
  "transactions": [
    {
      "hash": "0x14b4591e88eac6b6e8be2f85a3d35074f3e0541fefe43c445add9f1dccb76bf0",
      "transactionType": "CREATE",
      "contractName": "Staker",
      "contractAddress": "0x3ec319f50f30dd59895672274d505b8021566c0d",
      "function": null,
      "arguments": null,
      "transaction": {
        "from": "0xedc3e3588a5f0bf61c9a6b4ad1e573942d729e16",
        "gas": "0x4fafa",
        "value": "0x0",
        "input": "0x60806040525f80546001600160a01b0319167372f2697943bca1dc181f9ec251eba24ec3c411a71790553480156033575f80fd5b5061032a806100415f395ff3fe608060405260043610610036575f3560e01c806320e344e114610041578063650905a014610062578063f1f1db1e14610081575f80fd5b3661003d57005b5f80fd5b34801561004c575f80fd5b5061006061005b366004610291565b6100a0565b005b34801561006d575f80fd5b5061006061007c366004610291565b610105565b34801561008c575f80fd5b5061006061009b366004610291565b610261565b5f8054906101000a90046001600160a01b03166001600160a01b03166378e7ed2f826040518263ffffffff1660e01b81526004015f604051808303818588803b1580156100eb575f80fd5b505af11580156100fd573d5f803e3d5ffd5b505050505050565b5f8054906101000a90046001600160a01b03166001600160a01b031663ad5c46486040518163ffffffff1660e01b8152600401602060405180830381865afa158015610153573d5f803e3d5ffd5b505050506040513d601f19601f8201168201806040525081019061017791906102a8565b5f5460405163095ea7b360e01b81526001600160a01b039182166004820152670de0b6b3a7640000602482015291169063095ea7b3906044016020604051808303815f875af11580156101cc573d5f803e3d5ffd5b505050506040513d601f19601f820116820180604052508101906101f091906102d5565b505f546040516301b8d71d60e61b8152600481018390526001600160a01b0390911690636e35c740906024015b6020604051808303815f875af1158015610239573d5f803e3d5ffd5b505050506040513d601f19601f8201168201806040525081019061025d91906102d5565b5050565b5f546040516378f8ed8f60e11b8152600481018390526001600160a01b039091169063f1f1db1e9060240161021d565b5f602082840312156102a1575f80fd5b5035919050565b5f602082840312156102b8575f80fd5b81516001600160a01b03811681146102ce575f80fd5b9392505050565b5f602082840312156102e5575f80fd5b815180151581146102ce575f80fdfea2646970667358221220440d036766939e8d14244f87cc510056023556301a867c445279f4cd623a435f64736f6c634300081a0033",
        "nonce": "0x108",
        "chainId": "0xaa36a7"
      },
      "additionalContracts": [],
      "isFixedGasLimit": false
    },
    {
      "hash": "0x07e5a42c2a157f818e2dcd648415884fb1b2a671e7f5d70d7ca8cf52cf45ec51",
      "transactionType": "CALL",
      "contractName": null,
      "contractAddress": "0x3ec319f50f30dd59895672274d505b8021566c0d",
      "function": null,
      "arguments": null,
      "transaction": {
        "from": "0xedc3e3588a5f0bf61c9a6b4ad1e573942d729e16",
        "to": "0x3ec319f50f30dd59895672274d505b8021566c0d",
        "gas": "0x7199",
        "value": "0x44364c5bb0000",
        "input": "0x",
        "nonce": "0x109",
        "chainId": "0xaa36a7"
      },
      "additionalContracts": [],
      "isFixedGasLimit": false
    },
    {
      "hash": "0x11a15d754ab57f847c544ab418e233354cad2dddfa2e66c169cc45729eb31ffa",
      "transactionType": "CALL",
      "contractName": "Staker",
      "contractAddress": "0x3ec319f50f30dd59895672274d505b8021566c0d",
      "function": "StakeETH(uint256)",
      "arguments": [
        "1200000000000000"
      ],
      "transaction": {
        "from": "0xedc3e3588a5f0bf61c9a6b4ad1e573942d729e16",
        "to": "0x3ec319f50f30dd59895672274d505b8021566c0d",
        "gas": "0x21b66",
        "value": "0x0",
        "input": "0x20e344e100000000000000000000000000000000000000000000000000044364c5bb0000",
        "nonce": "0x10a",
        "chainId": "0xaa36a7"
      },
      "additionalContracts": [],
      "isFixedGasLimit": false
    },
    {
      "hash": "0x0afecbc079db1444f13915d954fd70f3469fbcc7e6cd5be39ff11d922be78cf4",
      "transactionType": "CALL",
      "contractName": "Staker",
      "contractAddress": "0x3ec319f50f30dd59895672274d505b8021566c0d",
      "function": "Unstake(uint256)",
      "arguments": [
        "1100000000000000"
      ],
      "transaction": {
        "from": "0xedc3e3588a5f0bf61c9a6b4ad1e573942d729e16",
        "to": "0x3ec319f50f30dd59895672274d505b8021566c0d",
        "gas": "0xfd10",
        "value": "0x0",
        "input": "0xf1f1db1e0000000000000000000000000000000000000000000000000003e871b540c000",
        "nonce": "0x10b",
        "chainId": "0xaa36a7"
      },
      "additionalContracts": [],
      "isFixedGasLimit": false
    },
    {
      "hash": "0x5b646c7d57884021dc6a1339099783b1f7596cc674589099d21d5ed912728be6",
      "transactionType": "CALL",
      "contractName": "Staker",
      "contractAddress": "0x3ec319f50f30dd59895672274d505b8021566c0d",
      "function": "appove_and_StakeWETH(uint256)",
      "arguments": [
        "1100000000000000"
      ],
      "transaction": {
        "from": "0xedc3e3588a5f0bf61c9a6b4ad1e573942d729e16",
        "to": "0x3ec319f50f30dd59895672274d505b8021566c0d",
        "gas": "0x1bdfc",
        "value": "0x0",
        "input": "0x650905a00000000000000000000000000000000000000000000000000003e871b540c000",
        "nonce": "0x10c",
        "chainId": "0xaa36a7"
      },
      "additionalContracts": [],
      "isFixedGasLimit": false
    }
  ],
  "receipts": [
    {
      "status": "0x1",
      "cumulativeGasUsed": "0x110840d",
      "logs": [],
      "logsBloom": "0x00000000000000000000000000000000000000000000000000000000000000000000000000000000000000000000000000000000000000000000000000000000000000000000000000000000000000000000000000000000000000000000000000000000000000000000000000000000000000000000000000000000000000000000000000000000000000000000000000000000000000000000000000000000000000000000000000000000000000000000000000000000000000000000000000000000000000000000000000000000000000000000000000000000000000000000000000000000000000000000000000000000000000000000000000000000",
      "type": "0x2",
      "transactionHash": "0x14b4591e88eac6b6e8be2f85a3d35074f3e0541fefe43c445add9f1dccb76bf0",
      "transactionIndex": "0x37",
      "blockHash": "0x1c4c3e9ca9afbba55b7752a3ee85f054e22daf65e9107932929d724143de69c0",
      "blockNumber": "0x628fbf",
      "gasUsed": "0x3d4c1",
      "effectiveGasPrice": "0x4f0eb9327",
      "from": "0xedc3e3588a5f0bf61c9a6b4ad1e573942d729e16",
      "to": null,
      "contractAddress": "0x3ec319f50f30dd59895672274d505b8021566c0d"
    },
    {
      "status": "0x1",
      "cumulativeGasUsed": "0x110d64c",
      "logs": [],
      "logsBloom": "0x00000000000000000000000000000000000000000000000000000000000000000000000000000000000000000000000000000000000000000000000000000000000000000000000000000000000000000000000000000000000000000000000000000000000000000000000000000000000000000000000000000000000000000000000000000000000000000000000000000000000000000000000000000000000000000000000000000000000000000000000000000000000000000000000000000000000000000000000000000000000000000000000000000000000000000000000000000000000000000000000000000000000000000000000000000000",
      "type": "0x2",
      "transactionHash": "0x07e5a42c2a157f818e2dcd648415884fb1b2a671e7f5d70d7ca8cf52cf45ec51",
      "transactionIndex": "0x38",
      "blockHash": "0x1c4c3e9ca9afbba55b7752a3ee85f054e22daf65e9107932929d724143de69c0",
      "blockNumber": "0x628fbf",
      "gasUsed": "0x523f",
      "effectiveGasPrice": "0x4f0eb9327",
      "from": "0xedc3e3588a5f0bf61c9a6b4ad1e573942d729e16",
      "to": "0x3ec319f50f30dd59895672274d505b8021566c0d",
      "contractAddress": null
    },
    {
      "status": "0x1",
      "cumulativeGasUsed": "0x1125cd0",
      "logs": [],
      "logsBloom": "0x00000000000000000000000000000000000000000000000000000000000000000000000000000000000000000000000000000000000000000000000000000000000000000000000000000000000000000000000000000000000000000000000000000000000000000000000000000000000000000000000000000000000000000000000000000000000000000000000000000000000000000000000000000000000000000000000000000000000000000000000000000000000000000000000000000000000000000000000000000000000000000000000000000000000000000000000000000000000000000000000000000000000000000000000000000000",
      "type": "0x2",
      "transactionHash": "0x11a15d754ab57f847c544ab418e233354cad2dddfa2e66c169cc45729eb31ffa",
      "transactionIndex": "0x39",
      "blockHash": "0x1c4c3e9ca9afbba55b7752a3ee85f054e22daf65e9107932929d724143de69c0",
      "blockNumber": "0x628fbf",
      "gasUsed": "0x18684",
      "effectiveGasPrice": "0x4f0eb9327",
      "from": "0xedc3e3588a5f0bf61c9a6b4ad1e573942d729e16",
      "to": "0x3ec319f50f30dd59895672274d505b8021566c0d",
      "contractAddress": null
    },
    {
      "status": "0x1",
      "cumulativeGasUsed": "0x11309d9",
      "logs": [],
      "logsBloom": "0x00000000000000000000000000000000000000000000000000000000000000000000000000000000000000000000000000000000000000000000000000000000000000000000000000000000000000000000000000000000000000000000000000000000000000000000000000000000000000000000000000000000000000000000000000000000000000000000000000000000000000000000000000000000000000000000000000000000000000000000000000000000000000000000000000000000000000000000000000000000000000000000000000000000000000000000000000000000000000000000000000000000000000000000000000000000",
      "type": "0x2",
      "transactionHash": "0x0afecbc079db1444f13915d954fd70f3469fbcc7e6cd5be39ff11d922be78cf4",
      "transactionIndex": "0x3a",
      "blockHash": "0x1c4c3e9ca9afbba55b7752a3ee85f054e22daf65e9107932929d724143de69c0",
      "blockNumber": "0x628fbf",
      "gasUsed": "0xad09",
      "effectiveGasPrice": "0x4f0eb9327",
      "from": "0xedc3e3588a5f0bf61c9a6b4ad1e573942d729e16",
      "to": "0x3ec319f50f30dd59895672274d505b8021566c0d",
      "contractAddress": null
    },
    {
      "status": "0x1",
      "cumulativeGasUsed": "0x1143acc",
      "logs": [
        {
          "address": "0xcd8af4a0f29cf7966c051542905f66f5dca9052f",
          "topics": [
            "0x8c5be1e5ebec7d5bd14f71427d1e84f3dd0314c0f7b2291e5b200ac8c7c3b925",
            "0x0000000000000000000000003ec319f50f30dd59895672274d505b8021566c0d",
            "0x00000000000000000000000072f2697943bca1dc181f9ec251eba24ec3c411a7"
          ],
          "data": "0x0000000000000000000000000000000000000000000000000de0b6b3a7640000",
          "blockHash": "0x1c4c3e9ca9afbba55b7752a3ee85f054e22daf65e9107932929d724143de69c0",
          "blockNumber": "0x628fbf",
          "transactionHash": "0x5b646c7d57884021dc6a1339099783b1f7596cc674589099d21d5ed912728be6",
          "transactionIndex": "0x3b",
          "logIndex": "0x84",
          "removed": false
        }
      ],
      "logsBloom": "0x00000000000000000000000000000000000000000000000000000200080000000000000000000000000000000000000000000000000000000000000000200000000000000000000000000000000000000000000200000000000000000000002000000000000002000000000000000000000000000000000000000000000000000000000000000000000000000000000000000000000000000000000000000000120000000000000000000000000000000000000000000000000000000000000000000000000000000000000000000000002000000000000000000000000000000010000000000000000004000000000000000000040000000000000000000000",
      "type": "0x2",
      "transactionHash": "0x5b646c7d57884021dc6a1339099783b1f7596cc674589099d21d5ed912728be6",
      "transactionIndex": "0x3b",
      "blockHash": "0x1c4c3e9ca9afbba55b7752a3ee85f054e22daf65e9107932929d724143de69c0",
      "blockNumber": "0x628fbf",
      "gasUsed": "0x130f3",
      "effectiveGasPrice": "0x4f0eb9327",
      "from": "0xedc3e3588a5f0bf61c9a6b4ad1e573942d729e16",
      "to": "0x3ec319f50f30dd59895672274d505b8021566c0d",
      "contractAddress": null
    }
  ],
  "libraries": [],
  "pending": [],
  "returns": {},
  "timestamp": 1723102407,
  "chain": 11155111,
  "commit": "f13bc58"
}