{
  "transactions": [
    {
      "hash": "0xb99c03f4f03c83ebd671b6c96a24736f62901472e60164db15c0a06448afec25",
      "transactionType": "CALL",
      "contractName": null,
      "contractAddress": "0x9f3b490daeb2b4c5b9ee6e5500643d0512df0424",
      "function": "StakeETH()",
      "arguments": [],
      "transaction": {
        "from": "0xedc3e3588a5f0bf61c9a6b4ad1e573942d729e16",
        "to": "0x9f3b490daeb2b4c5b9ee6e5500643d0512df0424",
        "gas": "0x1da2f",
        "value": "0x3e871b540c000",
        "input": "0x78e7ed2f",
        "nonce": "0x10f",
        "chainId": "0xaa36a7"
      },
      "additionalContracts": [],
      "isFixedGasLimit": false
    },
    {
      "hash": "0xdc0f0de9f2e26b471f6c3d58b8c765c488a501ce65d20f040925147048ec0496",
      "transactionType": "CALL",
      "contractName": null,
      "contractAddress": "0x9f3b490daeb2b4c5b9ee6e5500643d0512df0424",
      "function": "Unstake(uint256)",
      "arguments": [
        "1100000000000000"
      ],
      "transaction": {
        "from": "0xedc3e3588a5f0bf61c9a6b4ad1e573942d729e16",
        "to": "0x9f3b490daeb2b4c5b9ee6e5500643d0512df0424",
        "gas": "0xa83a",
        "value": "0x0",
        "input": "0xf1f1db1e0000000000000000000000000000000000000000000000000003e871b540c000",
        "nonce": "0x110",
        "chainId": "0xaa36a7"
      },
      "additionalContracts": [],
      "isFixedGasLimit": false
    },
    {
      "hash": "0xf5ece5284d08c9179df570b5ff8a1f0dbc284381d8a9ffa06b26c8f2be2acdf8",
      "transactionType": "CREATE",
      "contractName": "Staker",
      "contractAddress": "0x897335ca7072b2a6d27b9ec5fbb805776ac7cc4a",
      "function": null,
      "arguments": null,
      "transaction": {
        "from": "0xedc3e3588a5f0bf61c9a6b4ad1e573942d729e16",
        "gas": "0x4fafa",
        "value": "0x0",
        "input": "0x60806040525f80546001600160a01b031916739f3b490daeb2b4c5b9ee6e5500643d0512df04241790553480156033575f80fd5b5061032a806100415f395ff3fe608060405260043610610036575f3560e01c806320e344e114610041578063650905a014610062578063f1f1db1e14610081575f80fd5b3661003d57005b5f80fd5b34801561004c575f80fd5b5061006061005b366004610291565b6100a0565b005b34801561006d575f80fd5b5061006061007c366004610291565b610105565b34801561008c575f80fd5b5061006061009b366004610291565b610261565b5f8054906101000a90046001600160a01b03166001600160a01b03166378e7ed2f826040518263ffffffff1660e01b81526004015f604051808303818588803b1580156100eb575f80fd5b505af11580156100fd573d5f803e3d5ffd5b505050505050565b5f8054906101000a90046001600160a01b03166001600160a01b031663ad5c46486040518163ffffffff1660e01b8152600401602060405180830381865afa158015610153573d5f803e3d5ffd5b505050506040513d601f19601f8201168201806040525081019061017791906102a8565b5f5460405163095ea7b360e01b81526001600160a01b039182166004820152670de0b6b3a7640000602482015291169063095ea7b3906044016020604051808303815f875af11580156101cc573d5f803e3d5ffd5b505050506040513d601f19601f820116820180604052508101906101f091906102d5565b505f546040516301b8d71d60e61b8152600481018390526001600160a01b0390911690636e35c740906024015b6020604051808303815f875af1158015610239573d5f803e3d5ffd5b505050506040513d601f19601f8201168201806040525081019061025d91906102d5565b5050565b5f546040516378f8ed8f60e11b8152600481018390526001600160a01b039091169063f1f1db1e9060240161021d565b5f602082840312156102a1575f80fd5b5035919050565b5f602082840312156102b8575f80fd5b81516001600160a01b03811681146102ce575f80fd5b9392505050565b5f602082840312156102e5575f80fd5b815180151581146102ce575f80fdfea26469706673582212207d87d44261a29f98c7a6689c195d9fb7918d5334e77242cfc5b83364e2f2e15364736f6c634300081a0033",
        "nonce": "0x111",
        "chainId": "0xaa36a7"
      },
      "additionalContracts": [],
      "isFixedGasLimit": false
    },
    {
      "hash": "0x36740066125f5544a82324f959a370177e3a99c8c89926cf0db6cfa397876be0",
      "transactionType": "CALL",
      "contractName": null,
      "contractAddress": "0x897335ca7072b2a6d27b9ec5fbb805776ac7cc4a",
      "function": null,
      "arguments": null,
      "transaction": {
        "from": "0xedc3e3588a5f0bf61c9a6b4ad1e573942d729e16",
        "to": "0x897335ca7072b2a6d27b9ec5fbb805776ac7cc4a",
        "gas": "0x7199",
        "value": "0x44364c5bb0000",
        "input": "0x",
        "nonce": "0x112",
        "chainId": "0xaa36a7"
      },
      "additionalContracts": [],
      "isFixedGasLimit": false
    },
    {
      "hash": "0x082baefb0d13d62126311e012dcdb778f48634b1183a847b6c815103f0c60662",
      "transactionType": "CALL",
      "contractName": "Staker",
      "contractAddress": "0x897335ca7072b2a6d27b9ec5fbb805776ac7cc4a",
      "function": "StakeETH(uint256)",
      "arguments": [
        "1200000000000000"
      ],
      "transaction": {
        "from": "0xedc3e3588a5f0bf61c9a6b4ad1e573942d729e16",
        "to": "0x897335ca7072b2a6d27b9ec5fbb805776ac7cc4a",
        "gas": "0x21b66",
        "value": "0x0",
        "input": "0x20e344e100000000000000000000000000000000000000000000000000044364c5bb0000",
        "nonce": "0x113",
        "chainId": "0xaa36a7"
      },
      "additionalContracts": [],
      "isFixedGasLimit": false
    },
    {
      "hash": "0xc0edd86f52f74e3619fbe4845d593927351328d97f4d8bd06bf2a210f6ef83af",
      "transactionType": "CALL",
      "contractName": "Staker",
      "contractAddress": "0x897335ca7072b2a6d27b9ec5fbb805776ac7cc4a",
      "function": "Unstake(uint256)",
      "arguments": [
        "1100000000000000"
      ],
      "transaction": {
        "from": "0xedc3e3588a5f0bf61c9a6b4ad1e573942d729e16",
        "to": "0x897335ca7072b2a6d27b9ec5fbb805776ac7cc4a",
        "gas": "0xfd10",
        "value": "0x0",
        "input": "0xf1f1db1e0000000000000000000000000000000000000000000000000003e871b540c000",
        "nonce": "0x114",
        "chainId": "0xaa36a7"
      },
      "additionalContracts": [],
      "isFixedGasLimit": false
    },
    {
      "hash": "0xae4c544050eec130c530b8e62f2d3481e27da735e9a557ac1a30ca36c11af7e0",
      "transactionType": "CALL",
      "contractName": "Staker",
      "contractAddress": "0x897335ca7072b2a6d27b9ec5fbb805776ac7cc4a",
      "function": "appove_and_StakeWETH(uint256)",
      "arguments": [
        "1100000000000000"
      ],
      "transaction": {
        "from": "0xedc3e3588a5f0bf61c9a6b4ad1e573942d729e16",
        "to": "0x897335ca7072b2a6d27b9ec5fbb805776ac7cc4a",
        "gas": "0x1bdfc",
        "value": "0x0",
        "input": "0x650905a00000000000000000000000000000000000000000000000000003e871b540c000",
        "nonce": "0x115",
        "chainId": "0xaa36a7"
      },
      "additionalContracts": [],
      "isFixedGasLimit": false
    }
  ],
  "receipts": [
    {
      "status": "0x1",
      "cumulativeGasUsed": "0xa1db4c",
      "logs": [],
      "logsBloom": "0x00000000000000000000000000000000000000000000000000000000000000000000000000000000000000000000000000000000000000000000000000000000000000000000000000000000000000000000000000000000000000000000000000000000000000000000000000000000000000000000000000000000000000000000000000000000000000000000000000000000000000000000000000000000000000000000000000000000000000000000000000000000000000000000000000000000000000000000000000000000000000000000000000000000000000000000000000000000000000000000000000000000000000000000000000000000",
      "type": "0x2",
      "transactionHash": "0xb99c03f4f03c83ebd671b6c96a24736f62901472e60164db15c0a06448afec25",
      "transactionIndex": "0x3d",
      "blockHash": "0xf12623efd79805cebee97ab850bd5773b344de5cff765761140ae3a2e6fb50fc",
      "blockNumber": "0x628ff4",
      "gasUsed": "0x1574e",
      "effectiveGasPrice": "0x4c1d12fca",
      "from": "0xedc3e3588a5f0bf61c9a6b4ad1e573942d729e16",
      "to": "0x9f3b490daeb2b4c5b9ee6e5500643d0512df0424",
      "contractAddress": null
    },
    {
      "status": "0x1",
      "cumulativeGasUsed": "0xa25518",
      "logs": [],
      "logsBloom": "0x00000000000000000000000000000000000000000000000000000000000000000000000000000000000000000000000000000000000000000000000000000000000000000000000000000000000000000000000000000000000000000000000000000000000000000000000000000000000000000000000000000000000000000000000000000000000000000000000000000000000000000000000000000000000000000000000000000000000000000000000000000000000000000000000000000000000000000000000000000000000000000000000000000000000000000000000000000000000000000000000000000000000000000000000000000000",
      "type": "0x2",
      "transactionHash": "0xdc0f0de9f2e26b471f6c3d58b8c765c488a501ce65d20f040925147048ec0496",
      "transactionIndex": "0x3e",
      "blockHash": "0xf12623efd79805cebee97ab850bd5773b344de5cff765761140ae3a2e6fb50fc",
      "blockNumber": "0x628ff4",
      "gasUsed": "0x79cc",
      "effectiveGasPrice": "0x4c1d12fca",
      "from": "0xedc3e3588a5f0bf61c9a6b4ad1e573942d729e16",
      "to": "0x9f3b490daeb2b4c5b9ee6e5500643d0512df0424",
      "contractAddress": null
    },
    {
      "status": "0x1",
      "cumulativeGasUsed": "0xa629d9",
      "logs": [],
      "logsBloom": "0x00000000000000000000000000000000000000000000000000000000000000000000000000000000000000000000000000000000000000000000000000000000000000000000000000000000000000000000000000000000000000000000000000000000000000000000000000000000000000000000000000000000000000000000000000000000000000000000000000000000000000000000000000000000000000000000000000000000000000000000000000000000000000000000000000000000000000000000000000000000000000000000000000000000000000000000000000000000000000000000000000000000000000000000000000000000",
      "type": "0x2",
      "transactionHash": "0xf5ece5284d08c9179df570b5ff8a1f0dbc284381d8a9ffa06b26c8f2be2acdf8",
      "transactionIndex": "0x3f",
      "blockHash": "0xf12623efd79805cebee97ab850bd5773b344de5cff765761140ae3a2e6fb50fc",
      "blockNumber": "0x628ff4",
      "gasUsed": "0x3d4c1",
      "effectiveGasPrice": "0x4c1d12fca",
      "from": "0xedc3e3588a5f0bf61c9a6b4ad1e573942d729e16",
      "to": null,
      "contractAddress": "0x897335ca7072b2a6d27b9ec5fbb805776ac7cc4a"
    },
    {
      "status": "0x1",
      "cumulativeGasUsed": "0xa67c18",
      "logs": [],
      "logsBloom": "0x00000000000000000000000000000000000000000000000000000000000000000000000000000000000000000000000000000000000000000000000000000000000000000000000000000000000000000000000000000000000000000000000000000000000000000000000000000000000000000000000000000000000000000000000000000000000000000000000000000000000000000000000000000000000000000000000000000000000000000000000000000000000000000000000000000000000000000000000000000000000000000000000000000000000000000000000000000000000000000000000000000000000000000000000000000000",
      "type": "0x2",
      "transactionHash": "0x36740066125f5544a82324f959a370177e3a99c8c89926cf0db6cfa397876be0",
      "transactionIndex": "0x40",
      "blockHash": "0xf12623efd79805cebee97ab850bd5773b344de5cff765761140ae3a2e6fb50fc",
      "blockNumber": "0x628ff4",
      "gasUsed": "0x523f",
      "effectiveGasPrice": "0x4c1d12fca",
      "from": "0xedc3e3588a5f0bf61c9a6b4ad1e573942d729e16",
      "to": "0x897335ca7072b2a6d27b9ec5fbb805776ac7cc4a",
      "contractAddress": null
    },
    {
      "status": "0x1",
      "cumulativeGasUsed": "0xa8029c",
      "logs": [],
      "logsBloom": "0x00000000000000000000000000000000000000000000000000000000000000000000000000000000000000000000000000000000000000000000000000000000000000000000000000000000000000000000000000000000000000000000000000000000000000000000000000000000000000000000000000000000000000000000000000000000000000000000000000000000000000000000000000000000000000000000000000000000000000000000000000000000000000000000000000000000000000000000000000000000000000000000000000000000000000000000000000000000000000000000000000000000000000000000000000000000",
      "type": "0x2",
      "transactionHash": "0x082baefb0d13d62126311e012dcdb778f48634b1183a847b6c815103f0c60662",
      "transactionIndex": "0x41",
      "blockHash": "0xf12623efd79805cebee97ab850bd5773b344de5cff765761140ae3a2e6fb50fc",
      "blockNumber": "0x628ff4",
      "gasUsed": "0x18684",
      "effectiveGasPrice": "0x4c1d12fca",
      "from": "0xedc3e3588a5f0bf61c9a6b4ad1e573942d729e16",
      "to": "0x897335ca7072b2a6d27b9ec5fbb805776ac7cc4a",
      "contractAddress": null
    },
    {
      "status": "0x1",
      "cumulativeGasUsed": "0xa8afa5",
      "logs": [],
      "logsBloom": "0x00000000000000000000000000000000000000000000000000000000000000000000000000000000000000000000000000000000000000000000000000000000000000000000000000000000000000000000000000000000000000000000000000000000000000000000000000000000000000000000000000000000000000000000000000000000000000000000000000000000000000000000000000000000000000000000000000000000000000000000000000000000000000000000000000000000000000000000000000000000000000000000000000000000000000000000000000000000000000000000000000000000000000000000000000000000",
      "type": "0x2",
      "transactionHash": "0xc0edd86f52f74e3619fbe4845d593927351328d97f4d8bd06bf2a210f6ef83af",
      "transactionIndex": "0x42",
      "blockHash": "0xf12623efd79805cebee97ab850bd5773b344de5cff765761140ae3a2e6fb50fc",
      "blockNumber": "0x628ff4",
      "gasUsed": "0xad09",
      "effectiveGasPrice": "0x4c1d12fca",
      "from": "0xedc3e3588a5f0bf61c9a6b4ad1e573942d729e16",
      "to": "0x897335ca7072b2a6d27b9ec5fbb805776ac7cc4a",
      "contractAddress": null
    },
    {
      "status": "0x1",
      "cumulativeGasUsed": "0xa9e098",
      "logs": [
        {
          "address": "0xcd8af4a0f29cf7966c051542905f66f5dca9052f",
          "topics": [
            "0x8c5be1e5ebec7d5bd14f71427d1e84f3dd0314c0f7b2291e5b200ac8c7c3b925",
            "0x000000000000000000000000897335ca7072b2a6d27b9ec5fbb805776ac7cc4a",
            "0x0000000000000000000000009f3b490daeb2b4c5b9ee6e5500643d0512df0424"
          ],
          "data": "0x0000000000000000000000000000000000000000000000000de0b6b3a7640000",
          "blockHash": "0xf12623efd79805cebee97ab850bd5773b344de5cff765761140ae3a2e6fb50fc",
          "blockNumber": "0x628ff4",
          "transactionHash": "0xae4c544050eec130c530b8e62f2d3481e27da735e9a557ac1a30ca36c11af7e0",
          "transactionIndex": "0x43",
          "logIndex": "0x98",
          "removed": false
        }
      ],
      "logsBloom": "0x00000000000000000080000000000000100000000000000000000200000000000000000000000000000000000000000000000008000000000000000000200000000000000000000000000000000000000000000000000000040000000000000000000000000002000000000000000000000800000000000000000000000000000000000000000000000000000000000000000000000000000000000000000000020000000000000000000000000000000000000000000000000000000000020000000000000000000000000000000000000000000000000000000000000000000010000000000000000004000000000000000000000000000000000000000000",
      "type": "0x2",
      "transactionHash": "0xae4c544050eec130c530b8e62f2d3481e27da735e9a557ac1a30ca36c11af7e0",
      "transactionIndex": "0x43",
      "blockHash": "0xf12623efd79805cebee97ab850bd5773b344de5cff765761140ae3a2e6fb50fc",
      "blockNumber": "0x628ff4",
      "gasUsed": "0x130f3",
      "effectiveGasPrice": "0x4c1d12fca",
      "from": "0xedc3e3588a5f0bf61c9a6b4ad1e573942d729e16",
      "to": "0x897335ca7072b2a6d27b9ec5fbb805776ac7cc4a",
      "contractAddress": null
    }
  ],
  "libraries": [],
  "pending": [],
  "returns": {},
  "timestamp": 1723103154,
  "chain": 11155111,
  "commit": "f13bc58"
}