{
  "transactions": [
    {
      "hash": "0x86b6bd87b12114504fbf822d7744c363849bdb7f7bff76445f9be5e843c30249",
      "transactionType": "CALL",
      "contractName": null,
      "contractAddress": "0x8f5380415eeb1726ed08f74a4e67231753b2fc79",
      "function": "flipSwitch(bytes)",
      "arguments": [
        "0x76227e12"
      ],
      "transaction": {
        "from": "0xedc3e3588a5f0bf61c9a6b4ad1e573942d729e16",
        "to": "0x8f5380415eeb1726ed08f74a4e67231753b2fc79",
        "gas": "0x98c6",
        "value": "0x0",
        "input": "0x30c13ade0000000000000000000000000000000000000000000000000000000000000060000000000000000000000000000000000000000000000000000000000000000420606e1500000000000000000000000000000000000000000000000000000000000000000000000000000000000000000000000000000000000000000000000476227e1200000000000000000000000000000000000000000000000000000000",
        "nonce": "0x101",
        "chainId": "0xaa36a7"
      },
      "additionalContracts": [],
      "isFixedGasLimit": false
    }
  ],
  "receipts": [
    {
      "status": "0x1",
      "cumulativeGasUsed": "0x1345a66",
      "logs": [],
      "logsBloom": "0x00000000000000000000000000000000000000000000000000000000000000000000000000000000000000000000000000000000000000000000000000000000000000000000000000000000000000000000000000000000000000000000000000000000000000000000000000000000000000000000000000000000000000000000000000000000000000000000000000000000000000000000000000000000000000000000000000000000000000000000000000000000000000000000000000000000000000000000000000000000000000000000000000000000000000000000000000000000000000000000000000000000000000000000000000000000",
      "type": "0x2",
      "transactionHash": "0x86b6bd87b12114504fbf822d7744c363849bdb7f7bff76445f9be5e843c30249",
      "transactionIndex": "0x48",
      "blockHash": "0x1496deedd51683e5977b9acbeaf703daa7489f83c097dda7b7bc6460477326d7",
      "blockNumber": "0x627758",
      "gasUsed": "0x6e9c",
      "effectiveGasPrice": "0x51cb122e6",
      "from": "0xedc3e3588a5f0bf61c9a6b4ad1e573942d729e16",
      "to": "0x8f5380415eeb1726ed08f74a4e67231753b2fc79",
      "contractAddress": null
    }
  ],
  "libraries": [],
  "pending": [],
  "returns": {},
  "timestamp": 1723016690,
  "chain": 11155111,
  "commit": "f13bc58"
}