{
  "transactions": [
    {
      "hash": "0xca8045c45009968bcca1a8ced7e790080a8fb97e0fa0d8a214be780f9f63ac7c",
      "transactionType": "CALL",
      "contractName": null,
      "contractAddress": "0x38bd7792e9cfc2be83a5794b89cf512f609e56ea",
      "function": "initialize()",
      "arguments": [],
      "transaction": {
        "from": "0xedc3e3588a5f0bf61c9a6b4ad1e573942d729e16",
        "to": "0x38bd7792e9cfc2be83a5794b89cf512f609e56ea",
        "gas": "0x1670f",
        "value": "0x0",
        "input": "0x8129fc1c",
        "nonce": "0xd8",
        "chainId": "0xaa36a7"
      },
      "additionalContracts": [],
      "isFixedGasLimit": false
    },
    {
      "hash": "0xbf69acc14c5796784c7f2f7f6ca29f97a0cb741b10b81fd6cf55e952f9a5bd21",
      "transactionType": "CREATE",
      "contractName": "DestructedContract",
      "contractAddress": "0xc99f36fcc76503c0299b2064caff3242fc4e80ff",
      "function": null,
      "arguments": null,
      "transaction": {
        "from": "0xedc3e3588a5f0bf61c9a6b4ad1e573942d729e16",
        "gas": "0x18905",
        "value": "0x0",
        "input": "0x6080604052348015600f57600080fd5b50606f80601d6000396000f3fe6080604052348015600f57600080fd5b506004361060285760003560e01c806383197ef014602d575b600080fd5b60336035565b005b6000fffea2646970667358221220495950a60717836925bc5a04ebc60992a8f4a8f71513797d647fefe06e84b93664736f6c634300060c0033",
        "nonce": "0xd9",
        "chainId": "0xaa36a7"
      },
      "additionalContracts": [],
      "isFixedGasLimit": false
    },
    {
      "hash": "0x9048e5066587c692ad2d136df42df3aad427be719bcdb34603a4dd42147ac380",
      "transactionType": "CALL",
      "contractName": null,
      "contractAddress": "0x38bd7792e9cfc2be83a5794b89cf512f609e56ea",
      "function": "upgradeToAndCall(address,bytes)",
      "arguments": [
        "0xC99f36fCc76503C0299b2064cAfF3242FC4E80Ff",
        "0x83197ef0"
      ],
      "transaction": {
        "from": "0xedc3e3588a5f0bf61c9a6b4ad1e573942d729e16",
        "to": "0x38bd7792e9cfc2be83a5794b89cf512f609e56ea",
        "gas": "0x136ce",
        "value": "0x0",
        "input": "0x4f1ef286000000000000000000000000c99f36fcc76503c0299b2064caff3242fc4e80ff0000000000000000000000000000000000000000000000000000000000000040000000000000000000000000000000000000000000000000000000000000000483197ef000000000000000000000000000000000000000000000000000000000",
        "nonce": "0xda",
        "chainId": "0xaa36a7"
      },
      "additionalContracts": [],
      "isFixedGasLimit": false
    }
  ],
  "receipts": [
    {
      "status": "0x1",
      "cumulativeGasUsed": "0xa4015c",
      "logs": [],
      "logsBloom": "0x00000000000000000000000000000000000000000000000000000000000000000000000000000000000000000000000000000000000000000000000000000000000000000000000000000000000000000000000000000000000000000000000000000000000000000000000000000000000000000000000000000000000000000000000000000000000000000000000000000000000000000000000000000000000000000000000000000000000000000000000000000000000000000000000000000000000000000000000000000000000000000000000000000000000000000000000000000000000000000000000000000000000000000000000000000000",
      "type": "0x2",
      "transactionHash": "0xca8045c45009968bcca1a8ced7e790080a8fb97e0fa0d8a214be780f9f63ac7c",
      "transactionIndex": "0x3c",
      "blockHash": "0xa08af4db0b2970330c08bb0cc82be97bfa4b9ab4961d29e07dde5c7ea000fd09",
      "blockNumber": "0x61fcd0",
      "gasUsed": "0x103f4",
      "effectiveGasPrice": "0xd145dad64",
      "from": "0xedc3e3588a5f0bf61c9a6b4ad1e573942d729e16",
      "to": "0x38bd7792e9cfc2be83a5794b89cf512f609e56ea",
      "contractAddress": null
    },
    {
      "status": "0x1",
      "cumulativeGasUsed": "0xa52fb9",
      "logs": [],
      "logsBloom": "0x00000000000000000000000000000000000000000000000000000000000000000000000000000000000000000000000000000000000000000000000000000000000000000000000000000000000000000000000000000000000000000000000000000000000000000000000000000000000000000000000000000000000000000000000000000000000000000000000000000000000000000000000000000000000000000000000000000000000000000000000000000000000000000000000000000000000000000000000000000000000000000000000000000000000000000000000000000000000000000000000000000000000000000000000000000000",
      "type": "0x2",
      "transactionHash": "0xbf69acc14c5796784c7f2f7f6ca29f97a0cb741b10b81fd6cf55e952f9a5bd21",
      "transactionIndex": "0x3d",
      "blockHash": "0xa08af4db0b2970330c08bb0cc82be97bfa4b9ab4961d29e07dde5c7ea000fd09",
      "blockNumber": "0x61fcd0",
      "gasUsed": "0x12e5d",
      "effectiveGasPrice": "0xd145dad64",
      "from": "0xedc3e3588a5f0bf61c9a6b4ad1e573942d729e16",
      "to": null,
      "contractAddress": "0xc99f36fcc76503c0299b2064caff3242fc4e80ff"
    },
    {
      "status": "0x1",
      "cumulativeGasUsed": "0xa610be",
      "logs": [],
      "logsBloom": "0x00000000000000000000000000000000000000000000000000000000000000000000000000000000000000000000000000000000000000000000000000000000000000000000000000000000000000000000000000000000000000000000000000000000000000000000000000000000000000000000000000000000000000000000000000000000000000000000000000000000000000000000000000000000000000000000000000000000000000000000000000000000000000000000000000000000000000000000000000000000000000000000000000000000000000000000000000000000000000000000000000000000000000000000000000000000",
      "type": "0x2",
      "transactionHash": "0x9048e5066587c692ad2d136df42df3aad427be719bcdb34603a4dd42147ac380",
      "transactionIndex": "0x3e",
      "blockHash": "0xa08af4db0b2970330c08bb0cc82be97bfa4b9ab4961d29e07dde5c7ea000fd09",
      "blockNumber": "0x61fcd0",
      "gasUsed": "0xe105",
      "effectiveGasPrice": "0xd145dad64",
      "from": "0xedc3e3588a5f0bf61c9a6b4ad1e573942d729e16",
      "to": "0x38bd7792e9cfc2be83a5794b89cf512f609e56ea",
      "contractAddress": null
    }
  ],
  "libraries": [],
  "pending": [],
  "returns": {},
  "timestamp": 1722588999,
  "chain": 11155111,
  "commit": "f13bc58"
}