{
  "transactions": [
    {
      "hash": "0x3950d53ee2556ce0948bb90ab5d01df4ca04bcc57b480f6cff34a0b6f6bdc8a6",
      "transactionType": "CALL",
      "contractName": null,
      "contractAddress": "0x796426ca4553357e6e3f90bddde52dc912fe27e2",
      "function": "initialize()",
      "arguments": [],
      "transaction": {
        "from": "0xedc3e3588a5f0bf61c9a6b4ad1e573942d729e16",
        "to": "0x796426ca4553357e6e3f90bddde52dc912fe27e2",
        "gas": "0x1670f",
        "value": "0x0",
        "input": "0x8129fc1c",
        "nonce": "0xde",
        "chainId": "0xaa36a7"
      },
      "additionalContracts": [],
      "isFixedGasLimit": false
    },
    {
      "hash": "0xfa3eb0b9a681e11f47668ea4f782235c2517823bc50c902827a2fde6c280fa8c",
      "transactionType": "CREATE",
      "contractName": "DestructedContract",
      "contractAddress": "0x339a48dedb3452d94fdca695b9d87e76eb51c64d",
      "function": null,
      "arguments": null,
      "transaction": {
        "from": "0xedc3e3588a5f0bf61c9a6b4ad1e573942d729e16",
        "gas": "0x18905",
        "value": "0x0",
        "input": "0x6080604052348015600f57600080fd5b50606f80601d6000396000f3fe6080604052348015600f57600080fd5b506004361060285760003560e01c806383197ef014602d575b600080fd5b60336035565b005b6000fffea2646970667358221220d9c7c1e77b33dbf2cfe736cad4ef446793b10e677046c63570d4423603286f5b64736f6c634300060c0033",
        "nonce": "0xdf",
        "chainId": "0xaa36a7"
      },
      "additionalContracts": [],
      "isFixedGasLimit": false
    },
    {
      "hash": "0x5b778af08a9f8ad9bb1f32395390cbe6485ad6a1d122ab332b29533b9f576d29",
      "transactionType": "CALL",
      "contractName": null,
      "contractAddress": "0x796426ca4553357e6e3f90bddde52dc912fe27e2",
      "function": "upgradeToAndCall(address,bytes)",
      "arguments": [
        "0x02128E758cA4580654f3F53c3C64A20Ffd62d0Eb",
        "0x83197ef0"
      ],
      "transaction": {
        "from": "0xedc3e3588a5f0bf61c9a6b4ad1e573942d729e16",
        "to": "0x796426ca4553357e6e3f90bddde52dc912fe27e2",
        "gas": "0x136ce",
        "value": "0x0",
        "input": "0x4f1ef28600000000000000000000000002128e758ca4580654f3f53c3c64a20ffd62d0eb0000000000000000000000000000000000000000000000000000000000000040000000000000000000000000000000000000000000000000000000000000000483197ef000000000000000000000000000000000000000000000000000000000",
        "nonce": "0xe0",
        "chainId": "0xaa36a7"
      },
      "additionalContracts": [],
      "isFixedGasLimit": false
    }
  ],
  "receipts": [
    {
      "status": "0x1",
      "cumulativeGasUsed": "0x6cb82a",
      "logs": [],
      "logsBloom": "0x00000000000000000000000000000000000000000000000000000000000000000000000000000000000000000000000000000000000000000000000000000000000000000000000000000000000000000000000000000000000000000000000000000000000000000000000000000000000000000000000000000000000000000000000000000000000000000000000000000000000000000000000000000000000000000000000000000000000000000000000000000000000000000000000000000000000000000000000000000000000000000000000000000000000000000000000000000000000000000000000000000000000000000000000000000000",
      "type": "0x2",
      "transactionHash": "0x3950d53ee2556ce0948bb90ab5d01df4ca04bcc57b480f6cff34a0b6f6bdc8a6",
      "transactionIndex": "0x46",
      "blockHash": "0x945bba24665e4913fc5409abd03c1c3f7c3662ed9a9d02bdb886c8aead176623",
      "blockNumber": "0x61fdfa",
      "gasUsed": "0x103f4",
      "effectiveGasPrice": "0x2096375c3",
      "from": "0xedc3e3588a5f0bf61c9a6b4ad1e573942d729e16",
      "to": "0x796426ca4553357e6e3f90bddde52dc912fe27e2",
      "contractAddress": null
    },
    {
      "status": "0x1",
      "cumulativeGasUsed": "0x6de687",
      "logs": [],
      "logsBloom": "0x00000000000000000000000000000000000000000000000000000000000000000000000000000000000000000000000000000000000000000000000000000000000000000000000000000000000000000000000000000000000000000000000000000000000000000000000000000000000000000000000000000000000000000000000000000000000000000000000000000000000000000000000000000000000000000000000000000000000000000000000000000000000000000000000000000000000000000000000000000000000000000000000000000000000000000000000000000000000000000000000000000000000000000000000000000000",
      "type": "0x2",
      "transactionHash": "0xfa3eb0b9a681e11f47668ea4f782235c2517823bc50c902827a2fde6c280fa8c",
      "transactionIndex": "0x47",
      "blockHash": "0x945bba24665e4913fc5409abd03c1c3f7c3662ed9a9d02bdb886c8aead176623",
      "blockNumber": "0x61fdfa",
      "gasUsed": "0x12e5d",
      "effectiveGasPrice": "0x2096375c3",
      "from": "0xedc3e3588a5f0bf61c9a6b4ad1e573942d729e16",
      "to": null,
      "contractAddress": "0x339a48dedb3452d94fdca695b9d87e76eb51c64d"
    },
    {
      "status": "0x1",
      "cumulativeGasUsed": "0x6ec78c",
      "logs": [],
      "logsBloom": "0x00000000000000000000000000000000000000000000000000000000000000000000000000000000000000000000000000000000000000000000000000000000000000000000000000000000000000000000000000000000000000000000000000000000000000000000000000000000000000000000000000000000000000000000000000000000000000000000000000000000000000000000000000000000000000000000000000000000000000000000000000000000000000000000000000000000000000000000000000000000000000000000000000000000000000000000000000000000000000000000000000000000000000000000000000000000",
      "type": "0x2",
      "transactionHash": "0x5b778af08a9f8ad9bb1f32395390cbe6485ad6a1d122ab332b29533b9f576d29",
      "transactionIndex": "0x48",
      "blockHash": "0x945bba24665e4913fc5409abd03c1c3f7c3662ed9a9d02bdb886c8aead176623",
      "blockNumber": "0x61fdfa",
      "gasUsed": "0xe105",
      "effectiveGasPrice": "0x2096375c3",
      "from": "0xedc3e3588a5f0bf61c9a6b4ad1e573942d729e16",
      "to": "0x796426ca4553357e6e3f90bddde52dc912fe27e2",
      "contractAddress": null
    }
  ],
  "libraries": [],
  "pending": [],
  "returns": {},
  "timestamp": 1722593127,
  "chain": 11155111,
  "commit": "f13bc58"
}