{
  "transactions": [
    {
      "hash": "0x292fa77dcf32e5be3169797b24fea0a383c461c2d9a75820a0f33a459a476690",
      "transactionType": "CALL",
      "contractName": null,
      "contractAddress": "0x6f809c0c8d108938a8e1c4c933c3f48c83d325c9",
      "function": "initialize()",
      "arguments": [],
      "transaction": {
        "from": "0xedc3e3588a5f0bf61c9a6b4ad1e573942d729e16",
        "to": "0x6f809c0c8d108938a8e1c4c933c3f48c83d325c9",
        "gas": "0x1670f",
        "value": "0x0",
        "input": "0x8129fc1c",
        "nonce": "0x118",
        "chainId": "0xaa36a7"
      },
      "additionalContracts": [],
      "isFixedGasLimit": false
    },
    {
      "hash": "0x51a23835839741cad0127c1b667adfa4f33b3a5212193e9635e3bf52feaf9971",
      "transactionType": "CREATE",
      "contractName": "DestructedContract",
      "contractAddress": "0xcd74131240b447296bfbcb7e8dc9959c7a0356dc",
      "function": null,
      "arguments": null,
      "transaction": {
        "from": "0xedc3e3588a5f0bf61c9a6b4ad1e573942d729e16",
        "gas": "0x18905",
        "value": "0x0",
        "input": "0x6080604052348015600f57600080fd5b50606f80601d6000396000f3fe6080604052348015600f57600080fd5b506004361060285760003560e01c806383197ef014602d575b600080fd5b60336035565b005b6000fffea264697066735822122091fbbb52561ad8eea1e443b4bf0a62271f1b9e6ed5299349697ae1ccf1ae277664736f6c634300060c0033",
        "nonce": "0x119",
        "chainId": "0xaa36a7"
      },
      "additionalContracts": [],
      "isFixedGasLimit": false
    },
    {
      "hash": "0x7f568914c5875c28e9142815f4f99297800d6bcd964fc3863f809008bb2bb3f0",
      "transactionType": "CALL",
      "contractName": null,
      "contractAddress": "0x6f809c0c8d108938a8e1c4c933c3f48c83d325c9",
      "function": "upgradeToAndCall(address,bytes)",
      "arguments": [
        "0x02128E758cA4580654f3F53c3C64A20Ffd62d0Eb",
        "0x83197ef0"
      ],
      "transaction": {
        "from": "0xedc3e3588a5f0bf61c9a6b4ad1e573942d729e16",
        "to": "0x6f809c0c8d108938a8e1c4c933c3f48c83d325c9",
        "gas": "0x136ce",
        "value": "0x0",
        "input": "0x4f1ef28600000000000000000000000002128e758ca4580654f3f53c3c64a20ffd62d0eb0000000000000000000000000000000000000000000000000000000000000040000000000000000000000000000000000000000000000000000000000000000483197ef000000000000000000000000000000000000000000000000000000000",
        "nonce": "0x11a",
        "chainId": "0xaa36a7"
      },
      "additionalContracts": [],
      "isFixedGasLimit": false
    }
  ],
  "receipts": [
    {
      "status": "0x1",
      "cumulativeGasUsed": "0x6b9496",
      "logs": [],
      "logsBloom": "0x00000000000000000000000000000000000000000000000000000000000000000000000000000000000000000000000000000000000000000000000000000000000000000000000000000000000000000000000000000000000000000000000000000000000000000000000000000000000000000000000000000000000000000000000000000000000000000000000000000000000000000000000000000000000000000000000000000000000000000000000000000000000000000000000000000000000000000000000000000000000000000000000000000000000000000000000000000000000000000000000000000000000000000000000000000000",
      "type": "0x2",
      "transactionHash": "0x292fa77dcf32e5be3169797b24fea0a383c461c2d9a75820a0f33a459a476690",
      "transactionIndex": "0x39",
      "blockHash": "0xa3e4f2c75bfa3077f25c234de73f1fbeb27a6b4815eaf1f3cb82423829537b91",
      "blockNumber": "0x629070",
      "gasUsed": "0x103f4",
      "effectiveGasPrice": "0x3b559685d",
      "from": "0xedc3e3588a5f0bf61c9a6b4ad1e573942d729e16",
      "to": "0x6f809c0c8d108938a8e1c4c933c3f48c83d325c9",
      "contractAddress": null
    },
    {
      "status": "0x1",
      "cumulativeGasUsed": "0x6cc2f3",
      "logs": [],
      "logsBloom": "0x00000000000000000000000000000000000000000000000000000000000000000000000000000000000000000000000000000000000000000000000000000000000000000000000000000000000000000000000000000000000000000000000000000000000000000000000000000000000000000000000000000000000000000000000000000000000000000000000000000000000000000000000000000000000000000000000000000000000000000000000000000000000000000000000000000000000000000000000000000000000000000000000000000000000000000000000000000000000000000000000000000000000000000000000000000000",
      "type": "0x2",
      "transactionHash": "0x51a23835839741cad0127c1b667adfa4f33b3a5212193e9635e3bf52feaf9971",
      "transactionIndex": "0x3a",
      "blockHash": "0xa3e4f2c75bfa3077f25c234de73f1fbeb27a6b4815eaf1f3cb82423829537b91",
      "blockNumber": "0x629070",
      "gasUsed": "0x12e5d",
      "effectiveGasPrice": "0x3b559685d",
      "from": "0xedc3e3588a5f0bf61c9a6b4ad1e573942d729e16",
      "to": null,
      "contractAddress": "0xcd74131240b447296bfbcb7e8dc9959c7a0356dc"
    },
    {
      "status": "0x1",
      "cumulativeGasUsed": "0x6e4288",
      "logs": [],
      "logsBloom": "0x00000000000000000000000000000000000000000000000000000000000000000000000000000000000000000000000000000000000000000000000000000000000000000000000000000000000000000000000000000000000000000000000000000000000000000000000000000000000000000000000000000000000000000000000000000000000000000000000000000000000000000000000000000000000000000000000000000000000000000000000000000000000000000000000000000000000000000000000000000000000000000000000000000000000000000000000000000000000000000000000000000000000000000000000000000000",
      "type": "0x2",
      "transactionHash": "0x7f568914c5875c28e9142815f4f99297800d6bcd964fc3863f809008bb2bb3f0",
      "transactionIndex": "0x3d",
      "blockHash": "0xa3e4f2c75bfa3077f25c234de73f1fbeb27a6b4815eaf1f3cb82423829537b91",
      "blockNumber": "0x629070",
      "gasUsed": "0xd6dd",
      "effectiveGasPrice": "0x3b559685d",
      "from": "0xedc3e3588a5f0bf61c9a6b4ad1e573942d729e16",
      "to": "0x6f809c0c8d108938a8e1c4c933c3f48c83d325c9",
      "contractAddress": null
    }
  ],
  "libraries": [],
  "pending": [],
  "returns": {},
  "timestamp": 1723104798,
  "chain": 11155111,
  "commit": "f13bc58"
}