{
  "transactions": [
    {
      "hash": "0xda3e4b6c3f20d94ffeab9cfe1a7a72c967abe88e7c1ad2a4aeb0d80c26903f67",
      "transactionType": "CREATE",
      "contractName": "fakeERC20",
      "contractAddress": "0xe2125ba812241d382978e38b8b53c5422eab27df",
      "function": null,
      "arguments": [
        "\"Fake\"",
        "\"FK\"",
        "1000000",
        "0xeDc3e3588a5F0bf61c9A6B4ad1e573942d729e16"
      ],
      "transaction": {
        "from": "0xedc3e3588a5f0bf61c9a6b4ad1e573942d729e16",
        "gas": "0xb8570",
        "value": "0x0",
        "input": "0x608060405234801561001057600080fd5b50604051610c1d380380610c1d83398101604081905261002f91610288565b8383600361003d83826103a4565b50600461004a82826103a4565b50505061005d818361006660201b60201c565b50505050610489565b6001600160a01b0382166100955760405163ec442f0560e01b8152600060048201526024015b60405180910390fd5b6100a1600083836100a5565b5050565b6001600160a01b0383166100d05780600260008282546100c59190610462565b909155506101429050565b6001600160a01b038316600090815260208190526040902054818110156101235760405163391434e360e21b81526001600160a01b0385166004820152602481018290526044810183905260640161008c565b6001600160a01b03841660009081526020819052604090209082900390555b6001600160a01b03821661015e5760028054829003905561017d565b6001600160a01b03821660009081526020819052604090208054820190555b816001600160a01b0316836001600160a01b03167fddf252ad1be2c89b69c2b068fc378daa952ba7f163c4a11628f55a4df523b3ef836040516101c291815260200190565b60405180910390a3505050565b634e487b7160e01b600052604160045260246000fd5b600082601f8301126101f657600080fd5b81516001600160401b0381111561020f5761020f6101cf565b604051601f8201601f19908116603f011681016001600160401b038111828210171561023d5761023d6101cf565b60405281815283820160200185101561025557600080fd5b60005b8281101561027457602081860181015183830182015201610258565b506000918101602001919091529392505050565b6000806000806080858703121561029e57600080fd5b84516001600160401b038111156102b457600080fd5b6102c0878288016101e5565b602087015190955090506001600160401b038111156102de57600080fd5b6102ea878288016101e5565b60408701516060880151919550935090506001600160a01b038116811461031057600080fd5b939692955090935050565b600181811c9082168061032f57607f821691505b60208210810361034f57634e487b7160e01b600052602260045260246000fd5b50919050565b601f82111561039f57806000526020600020601f840160051c8101602085101561037c5750805b601f840160051c820191505b8181101561039c5760008155600101610388565b50505b505050565b81516001600160401b038111156103bd576103bd6101cf565b6103d1816103cb845461031b565b84610355565b6020601f82116001811461040557600083156103ed5750848201515b600019600385901b1c1916600184901b17845561039c565b600084815260208120601f198516915b828110156104355787850151825560209485019460019092019101610415565b50848210156104535786840151600019600387901b60f8161c191681555b50505050600190811b01905550565b8082018082111561048357634e487b7160e01b600052601160045260246000fd5b92915050565b610785806104986000396000f3fe608060405234801561001057600080fd5b506004361061009e5760003560e01c806370a082311161006657806370a082311461011857806395d89b4114610141578063a9059cbb14610149578063da1919b31461015c578063dd62ed3e1461017157600080fd5b806306fdde03146100a3578063095ea7b3146100c157806318160ddd146100e457806323b872dd146100f6578063313ce56714610109575b600080fd5b6100ab6101aa565b6040516100b891906105ce565b60405180910390f35b6100d46100cf366004610638565b61023c565b60405190151581526020016100b8565b6002545b6040519081526020016100b8565b6100d4610104366004610662565b610256565b604051601281526020016100b8565b6100e861012636600461069f565b6001600160a01b031660009081526020819052604090205490565b6100ab61027a565b6100d4610157366004610638565b610289565b61016f61016a366004610638565b610297565b005b6100e861017f3660046106c1565b6001600160a01b03918216600090815260016020908152604080832093909416825291909152205490565b6060600380546101b9906106f4565b80601f01602080910402602001604051908101604052809291908181526020018280546101e5906106f4565b80156102325780601f1061020757610100808354040283529160200191610232565b820191906000526020600020905b81548152906001019060200180831161021557829003601f168201915b5050505050905090565b60003361024a8185856102a5565b60019150505b92915050565b6000336102648582856102b7565b61026f85858561033a565b506001949350505050565b6060600480546101b9906106f4565b60003361024a81858561033a565b6102a18282610399565b5050565b6102b283838360016103cf565b505050565b6001600160a01b038381166000908152600160209081526040808320938616835292905220546000198114610334578181101561032557604051637dc7a0d960e11b81526001600160a01b038416600482015260248101829052604481018390526064015b60405180910390fd5b610334848484840360006103cf565b50505050565b6001600160a01b03831661036457604051634b637e8f60e11b81526000600482015260240161031c565b6001600160a01b03821661038e5760405163ec442f0560e01b81526000600482015260240161031c565b6102b28383836104a4565b6001600160a01b0382166103c35760405163ec442f0560e01b81526000600482015260240161031c565b6102a1600083836104a4565b6001600160a01b0384166103f95760405163e602df0560e01b81526000600482015260240161031c565b6001600160a01b03831661042357604051634a1406b160e11b81526000600482015260240161031c565b6001600160a01b038085166000908152600160209081526040808320938716835292905220829055801561033457826001600160a01b0316846001600160a01b03167f8c5be1e5ebec7d5bd14f71427d1e84f3dd0314c0f7b2291e5b200ac8c7c3b9258460405161049691815260200190565b60405180910390a350505050565b6001600160a01b0383166104cf5780600260008282546104c4919061072e565b909155506105419050565b6001600160a01b038316600090815260208190526040902054818110156105225760405163391434e360e21b81526001600160a01b0385166004820152602481018290526044810183905260640161031c565b6001600160a01b03841660009081526020819052604090209082900390555b6001600160a01b03821661055d5760028054829003905561057c565b6001600160a01b03821660009081526020819052604090208054820190555b816001600160a01b0316836001600160a01b03167fddf252ad1be2c89b69c2b068fc378daa952ba7f163c4a11628f55a4df523b3ef836040516105c191815260200190565b60405180910390a3505050565b602081526000825180602084015260005b818110156105fc57602081860181015160408684010152016105df565b506000604082850101526040601f19601f83011684010191505092915050565b80356001600160a01b038116811461063357600080fd5b919050565b6000806040838503121561064b57600080fd5b6106548361061c565b946020939093013593505050565b60008060006060848603121561067757600080fd5b6106808461061c565b925061068e6020850161061c565b929592945050506040919091013590565b6000602082840312156106b157600080fd5b6106ba8261061c565b9392505050565b600080604083850312156106d457600080fd5b6106dd8361061c565b91506106eb6020840161061c565b90509250929050565b600181811c9082168061070857607f821691505b60208210810361072857634e487b7160e01b600052602260045260246000fd5b50919050565b8082018082111561025057634e487b7160e01b600052601160045260246000fdfea2646970667358221220d035b73690bf2c05502bd7884b10353846b1b78bfda3470879645c875a8b01dd64736f6c634300081a0033000000000000000000000000000000000000000000000000000000000000008000000000000000000000000000000000000000000000000000000000000000c000000000000000000000000000000000000000000000000000000000000f4240000000000000000000000000edc3e3588a5f0bf61c9a6b4ad1e573942d729e16000000000000000000000000000000000000000000000000000000000000000446616b65000000000000000000000000000000000000000000000000000000000000000000000000000000000000000000000000000000000000000000000002464b000000000000000000000000000000000000000000000000000000000000",
        "nonce": "0xbd",
        "chainId": "0xaa36a7"
      },
      "additionalContracts": [],
      "isFixedGasLimit": false
    },
    {
      "hash": "0x4503da0be28b0e8021d506caf17f6395a2d69b069239c017bbcebeb7adb8221b",
      "transactionType": "CALL",
      "contractName": "fakeERC20",
      "contractAddress": "0xe2125ba812241d382978e38b8b53c5422eab27df",
      "function": "approve(address,uint256)",
      "arguments": [
        "0x6B6313A8de35b08fb09734689c0725Bb9E2a35c4",
        "1000000"
      ],
      "transaction": {
        "from": "0xedc3e3588a5f0bf61c9a6b4ad1e573942d729e16",
        "to": "0xe2125ba812241d382978e38b8b53c5422eab27df",
        "gas": "0xf9ff",
        "value": "0x0",
        "input": "0x095ea7b30000000000000000000000006b6313a8de35b08fb09734689c0725bb9e2a35c400000000000000000000000000000000000000000000000000000000000f4240",
        "nonce": "0xbe",
        "chainId": "0xaa36a7"
      },
      "additionalContracts": [],
      "isFixedGasLimit": false
    },
    {
      "hash": "0x3906b9b7655f26d7f351c47e08c942476b49ee89315d6ce3c7b11f9e7191693f",
      "transactionType": "CALL",
      "contractName": "fakeERC20",
      "contractAddress": "0xe2125ba812241d382978e38b8b53c5422eab27df",
      "function": "mintFor(address,uint256)",
      "arguments": [
        "0x6B6313A8de35b08fb09734689c0725Bb9E2a35c4",
        "100"
      ],
      "transaction": {
        "from": "0xedc3e3588a5f0bf61c9a6b4ad1e573942d729e16",
        "to": "0xe2125ba812241d382978e38b8b53c5422eab27df",
        "gas": "0x114ee",
        "value": "0x0",
        "input": "0xda1919b30000000000000000000000006b6313a8de35b08fb09734689c0725bb9e2a35c40000000000000000000000000000000000000000000000000000000000000064",
        "nonce": "0xbf",
        "chainId": "0xaa36a7"
      },
      "additionalContracts": [],
      "isFixedGasLimit": false
    },
    {
      "hash": "0x8437612b99214d149a88caac8a812290dcb0b3141967d1db06f684b60e358ed3",
      "transactionType": "CALL",
      "contractName": null,
      "contractAddress": "0x6b6313a8de35b08fb09734689c0725bb9e2a35c4",
      "function": "swap(address,address,uint256)",
      "arguments": [
        "0xe2125BA812241d382978E38b8b53C5422eAb27dF",
        "0x7057AbdaEf3b00633c3c179Dc9c04943750A4340",
        "100"
      ],
      "transaction": {
        "from": "0xedc3e3588a5f0bf61c9a6b4ad1e573942d729e16",
        "to": "0x6b6313a8de35b08fb09734689c0725bb9e2a35c4",
        "gas": "0x185d9",
        "value": "0x0",
        "input": "0xdf791e50000000000000000000000000e2125ba812241d382978e38b8b53c5422eab27df0000000000000000000000007057abdaef3b00633c3c179dc9c04943750a43400000000000000000000000000000000000000000000000000000000000000064",
        "nonce": "0xc0",
        "chainId": "0xaa36a7"
      },
      "additionalContracts": [],
      "isFixedGasLimit": false
    },
    {
      "hash": "0xfcc27f18925219db91e2e6df46f676c26769849b3bd3e0a75a5f2b730233fedd",
      "transactionType": "CREATE",
      "contractName": "fakeERC20",
      "contractAddress": "0x64a0742e137ca2fc60aeab217f88fedbd24205ca",
      "function": null,
      "arguments": [
        "\"Fake\"",
        "\"FK\"",
        "1000000",
        "0xeDc3e3588a5F0bf61c9A6B4ad1e573942d729e16"
      ],
      "transaction": {
        "from": "0xedc3e3588a5f0bf61c9a6b4ad1e573942d729e16",
        "gas": "0xb8570",
        "value": "0x0",
        "input": "0x608060405234801561001057600080fd5b50604051610c1d380380610c1d83398101604081905261002f91610288565b8383600361003d83826103a4565b50600461004a82826103a4565b50505061005d818361006660201b60201c565b50505050610489565b6001600160a01b0382166100955760405163ec442f0560e01b8152600060048201526024015b60405180910390fd5b6100a1600083836100a5565b5050565b6001600160a01b0383166100d05780600260008282546100c59190610462565b909155506101429050565b6001600160a01b038316600090815260208190526040902054818110156101235760405163391434e360e21b81526001600160a01b0385166004820152602481018290526044810183905260640161008c565b6001600160a01b03841660009081526020819052604090209082900390555b6001600160a01b03821661015e5760028054829003905561017d565b6001600160a01b03821660009081526020819052604090208054820190555b816001600160a01b0316836001600160a01b03167fddf252ad1be2c89b69c2b068fc378daa952ba7f163c4a11628f55a4df523b3ef836040516101c291815260200190565b60405180910390a3505050565b634e487b7160e01b600052604160045260246000fd5b600082601f8301126101f657600080fd5b81516001600160401b0381111561020f5761020f6101cf565b604051601f8201601f19908116603f011681016001600160401b038111828210171561023d5761023d6101cf565b60405281815283820160200185101561025557600080fd5b60005b8281101561027457602081860181015183830182015201610258565b506000918101602001919091529392505050565b6000806000806080858703121561029e57600080fd5b84516001600160401b038111156102b457600080fd5b6102c0878288016101e5565b602087015190955090506001600160401b038111156102de57600080fd5b6102ea878288016101e5565b60408701516060880151919550935090506001600160a01b038116811461031057600080fd5b939692955090935050565b600181811c9082168061032f57607f821691505b60208210810361034f57634e487b7160e01b600052602260045260246000fd5b50919050565b601f82111561039f57806000526020600020601f840160051c8101602085101561037c5750805b601f840160051c820191505b8181101561039c5760008155600101610388565b50505b505050565b81516001600160401b038111156103bd576103bd6101cf565b6103d1816103cb845461031b565b84610355565b6020601f82116001811461040557600083156103ed5750848201515b600019600385901b1c1916600184901b17845561039c565b600084815260208120601f198516915b828110156104355787850151825560209485019460019092019101610415565b50848210156104535786840151600019600387901b60f8161c191681555b50505050600190811b01905550565b8082018082111561048357634e487b7160e01b600052601160045260246000fd5b92915050565b610785806104986000396000f3fe608060405234801561001057600080fd5b506004361061009e5760003560e01c806370a082311161006657806370a082311461011857806395d89b4114610141578063a9059cbb14610149578063da1919b31461015c578063dd62ed3e1461017157600080fd5b806306fdde03146100a3578063095ea7b3146100c157806318160ddd146100e457806323b872dd146100f6578063313ce56714610109575b600080fd5b6100ab6101aa565b6040516100b891906105ce565b60405180910390f35b6100d46100cf366004610638565b61023c565b60405190151581526020016100b8565b6002545b6040519081526020016100b8565b6100d4610104366004610662565b610256565b604051601281526020016100b8565b6100e861012636600461069f565b6001600160a01b031660009081526020819052604090205490565b6100ab61027a565b6100d4610157366004610638565b610289565b61016f61016a366004610638565b610297565b005b6100e861017f3660046106c1565b6001600160a01b03918216600090815260016020908152604080832093909416825291909152205490565b6060600380546101b9906106f4565b80601f01602080910402602001604051908101604052809291908181526020018280546101e5906106f4565b80156102325780601f1061020757610100808354040283529160200191610232565b820191906000526020600020905b81548152906001019060200180831161021557829003601f168201915b5050505050905090565b60003361024a8185856102a5565b60019150505b92915050565b6000336102648582856102b7565b61026f85858561033a565b506001949350505050565b6060600480546101b9906106f4565b60003361024a81858561033a565b6102a18282610399565b5050565b6102b283838360016103cf565b505050565b6001600160a01b038381166000908152600160209081526040808320938616835292905220546000198114610334578181101561032557604051637dc7a0d960e11b81526001600160a01b038416600482015260248101829052604481018390526064015b60405180910390fd5b610334848484840360006103cf565b50505050565b6001600160a01b03831661036457604051634b637e8f60e11b81526000600482015260240161031c565b6001600160a01b03821661038e5760405163ec442f0560e01b81526000600482015260240161031c565b6102b28383836104a4565b6001600160a01b0382166103c35760405163ec442f0560e01b81526000600482015260240161031c565b6102a1600083836104a4565b6001600160a01b0384166103f95760405163e602df0560e01b81526000600482015260240161031c565b6001600160a01b03831661042357604051634a1406b160e11b81526000600482015260240161031c565b6001600160a01b038085166000908152600160209081526040808320938716835292905220829055801561033457826001600160a01b0316846001600160a01b03167f8c5be1e5ebec7d5bd14f71427d1e84f3dd0314c0f7b2291e5b200ac8c7c3b9258460405161049691815260200190565b60405180910390a350505050565b6001600160a01b0383166104cf5780600260008282546104c4919061072e565b909155506105419050565b6001600160a01b038316600090815260208190526040902054818110156105225760405163391434e360e21b81526001600160a01b0385166004820152602481018290526044810183905260640161031c565b6001600160a01b03841660009081526020819052604090209082900390555b6001600160a01b03821661055d5760028054829003905561057c565b6001600160a01b03821660009081526020819052604090208054820190555b816001600160a01b0316836001600160a01b03167fddf252ad1be2c89b69c2b068fc378daa952ba7f163c4a11628f55a4df523b3ef836040516105c191815260200190565b60405180910390a3505050565b602081526000825180602084015260005b818110156105fc57602081860181015160408684010152016105df565b506000604082850101526040601f19601f83011684010191505092915050565b80356001600160a01b038116811461063357600080fd5b919050565b6000806040838503121561064b57600080fd5b6106548361061c565b946020939093013593505050565b60008060006060848603121561067757600080fd5b6106808461061c565b925061068e6020850161061c565b929592945050506040919091013590565b6000602082840312156106b157600080fd5b6106ba8261061c565b9392505050565b600080604083850312156106d457600080fd5b6106dd8361061c565b91506106eb6020840161061c565b90509250929050565b600181811c9082168061070857607f821691505b60208210810361072857634e487b7160e01b600052602260045260246000fd5b50919050565b8082018082111561025057634e487b7160e01b600052601160045260246000fdfea2646970667358221220d035b73690bf2c05502bd7884b10353846b1b78bfda3470879645c875a8b01dd64736f6c634300081a0033000000000000000000000000000000000000000000000000000000000000008000000000000000000000000000000000000000000000000000000000000000c000000000000000000000000000000000000000000000000000000000000f4240000000000000000000000000edc3e3588a5f0bf61c9a6b4ad1e573942d729e16000000000000000000000000000000000000000000000000000000000000000446616b65000000000000000000000000000000000000000000000000000000000000000000000000000000000000000000000000000000000000000000000002464b000000000000000000000000000000000000000000000000000000000000",
        "nonce": "0xc1",
        "chainId": "0xaa36a7"
      },
      "additionalContracts": [],
      "isFixedGasLimit": false
    },
    {
      "hash": "0x6beb8542e9cba994b32b7c333483537c38debf51731925ee998cc5fad5a87fe7",
      "transactionType": "CALL",
      "contractName": "fakeERC20",
      "contractAddress": "0x64a0742e137ca2fc60aeab217f88fedbd24205ca",
      "function": "approve(address,uint256)",
      "arguments": [
        "0x6B6313A8de35b08fb09734689c0725Bb9E2a35c4",
        "1000000"
      ],
      "transaction": {
        "from": "0xedc3e3588a5f0bf61c9a6b4ad1e573942d729e16",
        "to": "0x64a0742e137ca2fc60aeab217f88fedbd24205ca",
        "gas": "0xf9ff",
        "value": "0x0",
        "input": "0x095ea7b30000000000000000000000006b6313a8de35b08fb09734689c0725bb9e2a35c400000000000000000000000000000000000000000000000000000000000f4240",
        "nonce": "0xc2",
        "chainId": "0xaa36a7"
      },
      "additionalContracts": [],
      "isFixedGasLimit": false
    },
    {
      "hash": "0x4d74fe677edb7b2d3303af6d39e82e1c3fc8b164a53790403a28a6de6749789c",
      "transactionType": "CALL",
      "contractName": "fakeERC20",
      "contractAddress": "0x64a0742e137ca2fc60aeab217f88fedbd24205ca",
      "function": "mintFor(address,uint256)",
      "arguments": [
        "0x6B6313A8de35b08fb09734689c0725Bb9E2a35c4",
        "100"
      ],
      "transaction": {
        "from": "0xedc3e3588a5f0bf61c9a6b4ad1e573942d729e16",
        "to": "0x64a0742e137ca2fc60aeab217f88fedbd24205ca",
        "gas": "0x114ee",
        "value": "0x0",
        "input": "0xda1919b30000000000000000000000006b6313a8de35b08fb09734689c0725bb9e2a35c40000000000000000000000000000000000000000000000000000000000000064",
        "nonce": "0xc3",
        "chainId": "0xaa36a7"
      },
      "additionalContracts": [],
      "isFixedGasLimit": false
    },
    {
      "hash": "0x640b106f1803ae7b20e23b6166f98bed5eee9e2d55d665fc6bc5643b61b597df",
      "transactionType": "CALL",
      "contractName": null,
      "contractAddress": "0x6b6313a8de35b08fb09734689c0725bb9e2a35c4",
      "function": "swap(address,address,uint256)",
      "arguments": [
        "0x64a0742E137CA2fC60aEAb217F88fEDBd24205cA",
        "0x54b6f0afd3872b5d8839ac169E35B87620c56929",
        "100"
      ],
      "transaction": {
        "from": "0xedc3e3588a5f0bf61c9a6b4ad1e573942d729e16",
        "to": "0x6b6313a8de35b08fb09734689c0725bb9e2a35c4",
        "gas": "0x185e6",
        "value": "0x0",
        "input": "0xdf791e5000000000000000000000000064a0742e137ca2fc60aeab217f88fedbd24205ca00000000000000000000000054b6f0afd3872b5d8839ac169e35b87620c569290000000000000000000000000000000000000000000000000000000000000064",
        "nonce": "0xc4",
        "chainId": "0xaa36a7"
      },
      "additionalContracts": [],
      "isFixedGasLimit": false
    }
  ],
  "receipts": [
    {
      "status": "0x1",
      "cumulativeGasUsed": "0xd1e9b4",
      "logs": [
        {
          "address": "0xe2125ba812241d382978e38b8b53c5422eab27df",
          "topics": [
            "0xddf252ad1be2c89b69c2b068fc378daa952ba7f163c4a11628f55a4df523b3ef",
            "0x0000000000000000000000000000000000000000000000000000000000000000",
            "0x000000000000000000000000edc3e3588a5f0bf61c9a6b4ad1e573942d729e16"
          ],
          "data": "0x00000000000000000000000000000000000000000000000000000000000f4240",
          "blockHash": "0x5d712d23c234ffe276121ab5757eddb723f659dc45ee5bdf1bcdc3a2461c25cb",
          "blockNumber": "0x61dfeb",
          "transactionHash": "0xda3e4b6c3f20d94ffeab9cfe1a7a72c967abe88e7c1ad2a4aeb0d80c26903f67",
          "transactionIndex": "0x6a",
          "logIndex": "0x9e",
          "removed": false
        }
      ],
      "logsBloom": "0x00000000000000000004000000000000000000000000000000000000000000000000000000000000000000000000000000000000000000000000000000000020008000000000000000000008000000000000000000000000000000000000000000000000020000000000000000000800000000000000000000000012000000000000000000000000000000010000000000000000000000000000000000000000000000000000000000000000000000000000000000000000000000000000000000000002000000000000000000000000000000000000000000000000000020000000000000000400000000000000000000000000000000000000000000000000",
      "type": "0x2",
      "transactionHash": "0xda3e4b6c3f20d94ffeab9cfe1a7a72c967abe88e7c1ad2a4aeb0d80c26903f67",
      "transactionIndex": "0x6a",
      "blockHash": "0x5d712d23c234ffe276121ab5757eddb723f659dc45ee5bdf1bcdc3a2461c25cb",
      "blockNumber": "0x61dfeb",
      "gasUsed": "0x8dd9f",
      "effectiveGasPrice": "0x6ed520a0",
      "from": "0xedc3e3588a5f0bf61c9a6b4ad1e573942d729e16",
      "to": null,
      "contractAddress": "0xe2125ba812241d382978e38b8b53c5422eab27df"
    },
    {
      "status": "0x1",
      "cumulativeGasUsed": "0xd29eb3",
      "logs": [
        {
          "address": "0xe2125ba812241d382978e38b8b53c5422eab27df",
          "topics": [
            "0x8c5be1e5ebec7d5bd14f71427d1e84f3dd0314c0f7b2291e5b200ac8c7c3b925",
            "0x000000000000000000000000edc3e3588a5f0bf61c9a6b4ad1e573942d729e16",
            "0x0000000000000000000000006b6313a8de35b08fb09734689c0725bb9e2a35c4"
          ],
          "data": "0x00000000000000000000000000000000000000000000000000000000000f4240",
          "blockHash": "0x5d712d23c234ffe276121ab5757eddb723f659dc45ee5bdf1bcdc3a2461c25cb",
          "blockNumber": "0x61dfeb",
          "transactionHash": "0x4503da0be28b0e8021d506caf17f6395a2d69b069239c017bbcebeb7adb8221b",
          "transactionIndex": "0x6b",
          "logIndex": "0x9f",
          "removed": false
        }
      ],
      "logsBloom": "0x00000000000000000004000000000000000000000000000000000000000000000000000000000000000000000000000000000000000000000000000000200020008000000000000000000000000000000000010000000000000010000000000000000000000000000000000000000000000000000000000000000002000000000000000000000000000000010000000000000000000000000000000000000000020000000000000000000000000000000000000000000000000000000000000000000000000000000000000000000000000000000000000000000000000000000010000200000400000000000000000000000000000000000000000000000000",
      "type": "0x2",
      "transactionHash": "0x4503da0be28b0e8021d506caf17f6395a2d69b069239c017bbcebeb7adb8221b",
      "transactionIndex": "0x6b",
      "blockHash": "0x5d712d23c234ffe276121ab5757eddb723f659dc45ee5bdf1bcdc3a2461c25cb",
      "blockNumber": "0x61dfeb",
      "gasUsed": "0xb4ff",
      "effectiveGasPrice": "0x6ed520a0",
      "from": "0xedc3e3588a5f0bf61c9a6b4ad1e573942d729e16",
      "to": "0xe2125ba812241d382978e38b8b53c5422eab27df",
      "contractAddress": null
    },
    {
      "status": "0x1",
      "cumulativeGasUsed": "0xd36732",
      "logs": [
        {
          "address": "0xe2125ba812241d382978e38b8b53c5422eab27df",
          "topics": [
            "0xddf252ad1be2c89b69c2b068fc378daa952ba7f163c4a11628f55a4df523b3ef",
            "0x0000000000000000000000000000000000000000000000000000000000000000",
            "0x0000000000000000000000006b6313a8de35b08fb09734689c0725bb9e2a35c4"
          ],
          "data": "0x0000000000000000000000000000000000000000000000000000000000000064",
          "blockHash": "0x5d712d23c234ffe276121ab5757eddb723f659dc45ee5bdf1bcdc3a2461c25cb",
          "blockNumber": "0x61dfeb",
          "transactionHash": "0x3906b9b7655f26d7f351c47e08c942476b49ee89315d6ce3c7b11f9e7191693f",
          "transactionIndex": "0x6c",
          "logIndex": "0xa0",
          "removed": false
        }
      ],
      "logsBloom": "0x00000000000000000004000000000000000000000000000000000000000000000000000000000000000000000000000000000000000000000000000000000000008000000000000000000008000000000000010000000000000010000000000000000000020000000000000000000800000000000000000000000010000000000000000000000000000000010000000000000000000000000000000000000000000000000000000000000000000000000000000000000000000000000000000000000002000000000000000000000000000000000000000000000000000020000000000200000000000000000000000000000000000000000000000000000000",
      "type": "0x2",
      "transactionHash": "0x3906b9b7655f26d7f351c47e08c942476b49ee89315d6ce3c7b11f9e7191693f",
      "transactionIndex": "0x6c",
      "blockHash": "0x5d712d23c234ffe276121ab5757eddb723f659dc45ee5bdf1bcdc3a2461c25cb",
      "blockNumber": "0x61dfeb",
      "gasUsed": "0xc87f",
      "effectiveGasPrice": "0x6ed520a0",
      "from": "0xedc3e3588a5f0bf61c9a6b4ad1e573942d729e16",
      "to": "0xe2125ba812241d382978e38b8b53c5422eab27df",
      "contractAddress": null
    },
    {
      "status": "0x1",
      "cumulativeGasUsed": "0xd48171",
      "logs": [
        {
          "address": "0xe2125ba812241d382978e38b8b53c5422eab27df",
          "topics": [
            "0xddf252ad1be2c89b69c2b068fc378daa952ba7f163c4a11628f55a4df523b3ef",
            "0x000000000000000000000000edc3e3588a5f0bf61c9a6b4ad1e573942d729e16",
            "0x0000000000000000000000006b6313a8de35b08fb09734689c0725bb9e2a35c4"
          ],
          "data": "0x0000000000000000000000000000000000000000000000000000000000000064",
          "blockHash": "0x5d712d23c234ffe276121ab5757eddb723f659dc45ee5bdf1bcdc3a2461c25cb",
          "blockNumber": "0x61dfeb",
          "transactionHash": "0x8437612b99214d149a88caac8a812290dcb0b3141967d1db06f684b60e358ed3",
          "transactionIndex": "0x6d",
          "logIndex": "0xa1",
          "removed": false
        },
        {
          "address": "0x7057abdaef3b00633c3c179dc9c04943750a4340",
          "topics": [
            "0x8c5be1e5ebec7d5bd14f71427d1e84f3dd0314c0f7b2291e5b200ac8c7c3b925",
            "0x0000000000000000000000006b6313a8de35b08fb09734689c0725bb9e2a35c4",
            "0x0000000000000000000000006b6313a8de35b08fb09734689c0725bb9e2a35c4"
          ],
          "data": "0x0000000000000000000000000000000000000000000000000000000000000064",
          "blockHash": "0x5d712d23c234ffe276121ab5757eddb723f659dc45ee5bdf1bcdc3a2461c25cb",
          "blockNumber": "0x61dfeb",
          "transactionHash": "0x8437612b99214d149a88caac8a812290dcb0b3141967d1db06f684b60e358ed3",
          "transactionIndex": "0x6d",
          "logIndex": "0xa2",
          "removed": false
        },
        {
          "address": "0x7057abdaef3b00633c3c179dc9c04943750a4340",
          "topics": [
            "0x8c5be1e5ebec7d5bd14f71427d1e84f3dd0314c0f7b2291e5b200ac8c7c3b925",
            "0x0000000000000000000000006b6313a8de35b08fb09734689c0725bb9e2a35c4",
            "0x0000000000000000000000006b6313a8de35b08fb09734689c0725bb9e2a35c4"
          ],
          "data": "0x0000000000000000000000000000000000000000000000000000000000000000",
          "blockHash": "0x5d712d23c234ffe276121ab5757eddb723f659dc45ee5bdf1bcdc3a2461c25cb",
          "blockNumber": "0x61dfeb",
          "transactionHash": "0x8437612b99214d149a88caac8a812290dcb0b3141967d1db06f684b60e358ed3",
          "transactionIndex": "0x6d",
          "logIndex": "0xa3",
          "removed": false
        },
        {
          "address": "0x7057abdaef3b00633c3c179dc9c04943750a4340",
          "topics": [
            "0xddf252ad1be2c89b69c2b068fc378daa952ba7f163c4a11628f55a4df523b3ef",
            "0x0000000000000000000000006b6313a8de35b08fb09734689c0725bb9e2a35c4",
            "0x000000000000000000000000edc3e3588a5f0bf61c9a6b4ad1e573942d729e16"
          ],
          "data": "0x0000000000000000000000000000000000000000000000000000000000000064",
          "blockHash": "0x5d712d23c234ffe276121ab5757eddb723f659dc45ee5bdf1bcdc3a2461c25cb",
          "blockNumber": "0x61dfeb",
          "transactionHash": "0x8437612b99214d149a88caac8a812290dcb0b3141967d1db06f684b60e358ed3",
          "transactionIndex": "0x6d",
          "logIndex": "0xa4",
          "removed": false
        }
      ],
      "logsBloom": "0x00000000000000000204000000000000000000000000000000000000000000000000000000000000000000000000000000000000000000000000000000200020008000000000000000000008000000000000010000000000000010000000000000000000000000000000000000000000000000000000000000000012000000000000000000000000000000010000000000000000000000000000000000000000020000000000000000000000000000000000000000000000000000000000000000000002000000000040000000000000000000000000000000020000000000000010000200000400000000000000000000000000000000000000000000000000",
      "type": "0x2",
      "transactionHash": "0x8437612b99214d149a88caac8a812290dcb0b3141967d1db06f684b60e358ed3",
      "transactionIndex": "0x6d",
      "blockHash": "0x5d712d23c234ffe276121ab5757eddb723f659dc45ee5bdf1bcdc3a2461c25cb",
      "blockNumber": "0x61dfeb",
      "gasUsed": "0x11a3f",
      "effectiveGasPrice": "0x6ed520a0",
      "from": "0xedc3e3588a5f0bf61c9a6b4ad1e573942d729e16",
      "to": "0x6b6313a8de35b08fb09734689c0725bb9e2a35c4",
      "contractAddress": null
    },
    {
      "status": "0x1",
      "cumulativeGasUsed": "0xdd5f10",
      "logs": [
        {
          "address": "0x64a0742e137ca2fc60aeab217f88fedbd24205ca",
          "topics": [
            "0xddf252ad1be2c89b69c2b068fc378daa952ba7f163c4a11628f55a4df523b3ef",
            "0x0000000000000000000000000000000000000000000000000000000000000000",
            "0x000000000000000000000000edc3e3588a5f0bf61c9a6b4ad1e573942d729e16"
          ],
          "data": "0x00000000000000000000000000000000000000000000000000000000000f4240",
          "blockHash": "0x5d712d23c234ffe276121ab5757eddb723f659dc45ee5bdf1bcdc3a2461c25cb",
          "blockNumber": "0x61dfeb",
          "transactionHash": "0xfcc27f18925219db91e2e6df46f676c26769849b3bd3e0a75a5f2b730233fedd",
          "transactionIndex": "0x6e",
          "logIndex": "0xa5",
          "removed": false
        }
      ],
      "logsBloom": "0x00000000000000000000000000000000000000000000000100000000000000000000000000800000000000000000000000000000000400000000000000000020000000000000000000000008000000000000000000000000000000000000000000000000020000000000000000000800000000000000000000000012000000000000000000000000000000000000000000000000000000000000000000000000000000000000000000000000000000000000000000000000000000000000000000000002000000000000000000000000000000000000000000000000000020000000000000000400000000000000000000000000000000000000000000000000",
      "type": "0x2",
      "transactionHash": "0xfcc27f18925219db91e2e6df46f676c26769849b3bd3e0a75a5f2b730233fedd",
      "transactionIndex": "0x6e",
      "blockHash": "0x5d712d23c234ffe276121ab5757eddb723f659dc45ee5bdf1bcdc3a2461c25cb",
      "blockNumber": "0x61dfeb",
      "gasUsed": "0x8dd9f",
      "effectiveGasPrice": "0x6ed520a0",
      "from": "0xedc3e3588a5f0bf61c9a6b4ad1e573942d729e16",
      "to": null,
      "contractAddress": "0x64a0742e137ca2fc60aeab217f88fedbd24205ca"
    },
    {
      "status": "0x1",
      "cumulativeGasUsed": "0xde140f",
      "logs": [
        {
          "address": "0x64a0742e137ca2fc60aeab217f88fedbd24205ca",
          "topics": [
            "0x8c5be1e5ebec7d5bd14f71427d1e84f3dd0314c0f7b2291e5b200ac8c7c3b925",
            "0x000000000000000000000000edc3e3588a5f0bf61c9a6b4ad1e573942d729e16",
            "0x0000000000000000000000006b6313a8de35b08fb09734689c0725bb9e2a35c4"
          ],
          "data": "0x00000000000000000000000000000000000000000000000000000000000f4240",
          "blockHash": "0x5d712d23c234ffe276121ab5757eddb723f659dc45ee5bdf1bcdc3a2461c25cb",
          "blockNumber": "0x61dfeb",
          "transactionHash": "0x6beb8542e9cba994b32b7c333483537c38debf51731925ee998cc5fad5a87fe7",
          "transactionIndex": "0x6f",
          "logIndex": "0xa6",
          "removed": false
        }
      ],
      "logsBloom": "0x00000000000000000000000000000000000000000000000100000000000000000000000000800000000000000000000000000000000400000000000000200020000000000000000000000000000000000000010000000000000010000000000000000000000000000000000000000000000000000000000000000002000000000000000000000000000000000000000000000000000000000000000000000000020000000000000000000000000000000000000000000000000000000000000000000000000000000000000000000000000000000000000000000000000000000010000200000400000000000000000000000000000000000000000000000000",
      "type": "0x2",
      "transactionHash": "0x6beb8542e9cba994b32b7c333483537c38debf51731925ee998cc5fad5a87fe7",
      "transactionIndex": "0x6f",
      "blockHash": "0x5d712d23c234ffe276121ab5757eddb723f659dc45ee5bdf1bcdc3a2461c25cb",
      "blockNumber": "0x61dfeb",
      "gasUsed": "0xb4ff",
      "effectiveGasPrice": "0x6ed520a0",
      "from": "0xedc3e3588a5f0bf61c9a6b4ad1e573942d729e16",
      "to": "0x64a0742e137ca2fc60aeab217f88fedbd24205ca",
      "contractAddress": null
    },
    {
      "status": "0x1",
      "cumulativeGasUsed": "0xdedc8e",
      "logs": [
        {
          "address": "0x64a0742e137ca2fc60aeab217f88fedbd24205ca",
          "topics": [
            "0xddf252ad1be2c89b69c2b068fc378daa952ba7f163c4a11628f55a4df523b3ef",
            "0x0000000000000000000000000000000000000000000000000000000000000000",
            "0x0000000000000000000000006b6313a8de35b08fb09734689c0725bb9e2a35c4"
          ],
          "data": "0x0000000000000000000000000000000000000000000000000000000000000064",
          "blockHash": "0x5d712d23c234ffe276121ab5757eddb723f659dc45ee5bdf1bcdc3a2461c25cb",
          "blockNumber": "0x61dfeb",
          "transactionHash": "0x4d74fe677edb7b2d3303af6d39e82e1c3fc8b164a53790403a28a6de6749789c",
          "transactionIndex": "0x70",
          "logIndex": "0xa7",
          "removed": false
        }
      ],
      "logsBloom": "0x00000000000000000000000000000000000000000000000100000000000000000000000000800000000000000000000000000000000400000000000000000000000000000000000000000008000000000000010000000000000010000000000000000000020000000000000000000800000000000000000000000010000000000000000000000000000000000000000000000000000000000000000000000000000000000000000000000000000000000000000000000000000000000000000000000002000000000000000000000000000000000000000000000000000020000000000200000000000000000000000000000000000000000000000000000000",
      "type": "0x2",
      "transactionHash": "0x4d74fe677edb7b2d3303af6d39e82e1c3fc8b164a53790403a28a6de6749789c",
      "transactionIndex": "0x70",
      "blockHash": "0x5d712d23c234ffe276121ab5757eddb723f659dc45ee5bdf1bcdc3a2461c25cb",
      "blockNumber": "0x61dfeb",
      "gasUsed": "0xc87f",
      "effectiveGasPrice": "0x6ed520a0",
      "from": "0xedc3e3588a5f0bf61c9a6b4ad1e573942d729e16",
      "to": "0x64a0742e137ca2fc60aeab217f88fedbd24205ca",
      "contractAddress": null
    },
    {
      "status": "0x1",
      "cumulativeGasUsed": "0xdff6d6",
      "logs": [
        {
          "address": "0x64a0742e137ca2fc60aeab217f88fedbd24205ca",
          "topics": [
            "0xddf252ad1be2c89b69c2b068fc378daa952ba7f163c4a11628f55a4df523b3ef",
            "0x000000000000000000000000edc3e3588a5f0bf61c9a6b4ad1e573942d729e16",
            "0x0000000000000000000000006b6313a8de35b08fb09734689c0725bb9e2a35c4"
          ],
          "data": "0x0000000000000000000000000000000000000000000000000000000000000064",
          "blockHash": "0x5d712d23c234ffe276121ab5757eddb723f659dc45ee5bdf1bcdc3a2461c25cb",
          "blockNumber": "0x61dfeb",
          "transactionHash": "0x640b106f1803ae7b20e23b6166f98bed5eee9e2d55d665fc6bc5643b61b597df",
          "transactionIndex": "0x71",
          "logIndex": "0xa8",
          "removed": false
        },
        {
          "address": "0x54b6f0afd3872b5d8839ac169e35b87620c56929",
          "topics": [
            "0x8c5be1e5ebec7d5bd14f71427d1e84f3dd0314c0f7b2291e5b200ac8c7c3b925",
            "0x0000000000000000000000006b6313a8de35b08fb09734689c0725bb9e2a35c4",
            "0x0000000000000000000000006b6313a8de35b08fb09734689c0725bb9e2a35c4"
          ],
          "data": "0x0000000000000000000000000000000000000000000000000000000000000064",
          "blockHash": "0x5d712d23c234ffe276121ab5757eddb723f659dc45ee5bdf1bcdc3a2461c25cb",
          "blockNumber": "0x61dfeb",
          "transactionHash": "0x640b106f1803ae7b20e23b6166f98bed5eee9e2d55d665fc6bc5643b61b597df",
          "transactionIndex": "0x71",
          "logIndex": "0xa9",
          "removed": false
        },
        {
          "address": "0x54b6f0afd3872b5d8839ac169e35b87620c56929",
          "topics": [
            "0x8c5be1e5ebec7d5bd14f71427d1e84f3dd0314c0f7b2291e5b200ac8c7c3b925",
            "0x0000000000000000000000006b6313a8de35b08fb09734689c0725bb9e2a35c4",
            "0x0000000000000000000000006b6313a8de35b08fb09734689c0725bb9e2a35c4"
          ],
          "data": "0x0000000000000000000000000000000000000000000000000000000000000000",
          "blockHash": "0x5d712d23c234ffe276121ab5757eddb723f659dc45ee5bdf1bcdc3a2461c25cb",
          "blockNumber": "0x61dfeb",
          "transactionHash": "0x640b106f1803ae7b20e23b6166f98bed5eee9e2d55d665fc6bc5643b61b597df",
          "transactionIndex": "0x71",
          "logIndex": "0xaa",
          "removed": false
        },
        {
          "address": "0x54b6f0afd3872b5d8839ac169e35b87620c56929",
          "topics": [
            "0xddf252ad1be2c89b69c2b068fc378daa952ba7f163c4a11628f55a4df523b3ef",
            "0x0000000000000000000000006b6313a8de35b08fb09734689c0725bb9e2a35c4",
            "0x000000000000000000000000edc3e3588a5f0bf61c9a6b4ad1e573942d729e16"
          ],
          "data": "0x0000000000000000000000000000000000000000000000000000000000000064",
          "blockHash": "0x5d712d23c234ffe276121ab5757eddb723f659dc45ee5bdf1bcdc3a2461c25cb",
          "blockNumber": "0x61dfeb",
          "transactionHash": "0x640b106f1803ae7b20e23b6166f98bed5eee9e2d55d665fc6bc5643b61b597df",
          "transactionIndex": "0x71",
          "logIndex": "0xab",
          "removed": false
        }
      ],
      "logsBloom": "0x00020000000000000000001000000000000000000000000100000000000000000000000000800000000000000000000000000000000400000000000000200020000000000000000000000008000000000000010000000000000010000000000000000000000000000000000000000000000000000000000000000012000000000000000000000000000000000000000000000000000000000000000000000000020000000000000000000000000000000000000000000000000000000000000000000002000000000000000000000000000000000000000000000000000000000010000200000400000000000000100000000000000000000000000000000000",
      "type": "0x2",
      "transactionHash": "0x640b106f1803ae7b20e23b6166f98bed5eee9e2d55d665fc6bc5643b61b597df",
      "transactionIndex": "0x71",
      "blockHash": "0x5d712d23c234ffe276121ab5757eddb723f659dc45ee5bdf1bcdc3a2461c25cb",
      "blockNumber": "0x61dfeb",
      "gasUsed": "0x11a48",
      "effectiveGasPrice": "0x6ed520a0",
      "from": "0xedc3e3588a5f0bf61c9a6b4ad1e573942d729e16",
      "to": "0x6b6313a8de35b08fb09734689c0725bb9e2a35c4",
      "contractAddress": null
    }
  ],
  "libraries": [],
  "pending": [],
  "returns": {},
  "timestamp": 1722488246,
  "chain": 11155111,
  "commit": "f13bc58"
}