{
  "transactions": [
    {
      "hash": "0xe79c6ca29ca82660b69e51f681281544e346d3547c36ac7d2b550ffcc65a3cb4",
      "transactionType": "CREATE",
      "contractName": "BotDetector",
      "contractAddress": "0xbb3d3054e32c91b07a02a6aa023586394a8fe317",
      "function": null,
      "arguments": [
        "0x1481c39bAE0883d6F0f060d7514102ad29Aa1fc7"
      ],
      "transaction": {
        "from": "0xedc3e3588a5f0bf61c9a6b4ad1e573942d729e16",
        "gas": "0x3e444",
        "value": "0x0",
        "input": "0x6080604052348015600f57600080fd5b506040516102b23803806102b2833981016040819052602c916050565b600080546001600160a01b0319166001600160a01b0392909216919091179055607e565b600060208284031215606157600080fd5b81516001600160a01b0381168114607757600080fd5b9392505050565b6102258061008d6000396000f3fe608060405234801561001057600080fd5b506004361061002b5760003560e01c8063220ab6aa14610030575b600080fd5b61004361003e3660046100fc565b610045565b005b600080806100568460048188610183565b81019061006391906101ad565b60005492955090935091506001600160a01b03908116908216036100dc5760405162461bcd60e51b815260206004820152602660248201527f43616e2774207769746864726177206e617469766520746f6b656e2066726f6d604482015265081d985d5b1d60d21b606482015260840160405180910390fd5b505050505050565b6001600160a01b03811681146100f957600080fd5b50565b60008060006040848603121561011157600080fd5b833561011c816100e4565b9250602084013567ffffffffffffffff81111561013857600080fd5b8401601f8101861361014957600080fd5b803567ffffffffffffffff81111561016057600080fd5b86602082840101111561017257600080fd5b939660209190910195509293505050565b6000808585111561019357600080fd5b838611156101a057600080fd5b5050820193919092039150565b6000806000606084860312156101c257600080fd5b83356101cd816100e4565b92506020840135915060408401356101e4816100e4565b80915050925092509256fea2646970667358221220ba5a597f1a90e5a24f06ad2ab1549eaf2743a6a318f77582b3c70ffcfe7cc8b964736f6c634300081a00330000000000000000000000001481c39bae0883d6f0f060d7514102ad29aa1fc7",
        "nonce": "0xe4",
        "chainId": "0xaa36a7"
      },
      "additionalContracts": [],
      "isFixedGasLimit": false
    },
    {
      "hash": "0x4c0b59bd098a5193dabdd8911b1f336f7c328191838892037bfdbeb5a28ba98c",
      "transactionType": "CALL",
      "contractName": null,
      "contractAddress": "0xe5fe4821f4e87b284cc51ec92e97febb0736a35f",
      "function": "setDetectionBot(address)",
      "arguments": [
        "0xBb3D3054E32C91b07A02A6Aa023586394A8fe317"
      ],
      "transaction": {
        "from": "0xedc3e3588a5f0bf61c9a6b4ad1e573942d729e16",
        "to": "0xe5fe4821f4e87b284cc51ec92e97febb0736a35f",
        "gas": "0xfb10",
        "value": "0x0",
        "input": "0x9e927c68000000000000000000000000bb3d3054e32c91b07a02a6aa023586394a8fe317",
        "nonce": "0xe5",
        "chainId": "0xaa36a7"
      },
      "additionalContracts": [],
      "isFixedGasLimit": false
    },
    {
      "hash": "0x01daba463eca8c65a7ca5b35edc39cce3c9ea044056e06210d53d077c3284d41",
      "transactionType": "CALL",
      "contractName": null,
      "contractAddress": "0x1481c39bae0883d6f0f060d7514102ad29aa1fc7",
      "function": "sweepToken(address)",
      "arguments": [
        "0xbb29325bfbbe06DBae9109e59DE270d0c3b33C4b"
      ],
      "transaction": {
        "from": "0xedc3e3588a5f0bf61c9a6b4ad1e573942d729e16",
        "to": "0x1481c39bae0883d6f0f060d7514102ad29aa1fc7",
        "gas": "0x1d36b",
        "value": "0x0",
        "input": "0x1be19560000000000000000000000000bb29325bfbbe06dbae9109e59de270d0c3b33c4b",
        "nonce": "0xe6",
        "chainId": "0xaa36a7"
      },
      "additionalContracts": [],
      "isFixedGasLimit": false
    }
  ],
  "receipts": [
    {
      "status": "0x1",
      "cumulativeGasUsed": "0x7f62ee",
      "logs": [],
      "logsBloom": "0x00000000000000000000000000000000000000000000000000000000000000000000000000000000000000000000000000000000000000000000000000000000000000000000000000000000000000000000000000000000000000000000000000000000000000000000000000000000000000000000000000000000000000000000000000000000000000000000000000000000000000000000000000000000000000000000000000000000000000000000000000000000000000000000000000000000000000000000000000000000000000000000000000000000000000000000000000000000000000000000000000000000000000000000000000000000",
      "type": "0x2",
      "transactionHash": "0xe79c6ca29ca82660b69e51f681281544e346d3547c36ac7d2b550ffcc65a3cb4",
      "transactionIndex": "0x38",
      "blockHash": "0x00c7a55c648911d2963237ef4177e42c8149dfa7ce21dc56f77c60c4aa2840a6",
      "blockNumber": "0x6246e8",
      "gasUsed": "0x2fe8a",
      "effectiveGasPrice": "0x15c332cdc",
      "from": "0xedc3e3588a5f0bf61c9a6b4ad1e573942d729e16",
      "to": null,
      "contractAddress": "0xbb3d3054e32c91b07a02a6aa023586394a8fe317"
    },
    {
      "status": "0x1",
      "cumulativeGasUsed": "0x800e99",
      "logs": [],
      "logsBloom": "0x00000000000000000000000000000000000000000000000000000000000000000000000000000000000000000000000000000000000000000000000000000000000000000000000000000000000000000000000000000000000000000000000000000000000000000000000000000000000000000000000000000000000000000000000000000000000000000000000000000000000000000000000000000000000000000000000000000000000000000000000000000000000000000000000000000000000000000000000000000000000000000000000000000000000000000000000000000000000000000000000000000000000000000000000000000000",
      "type": "0x2",
      "transactionHash": "0x4c0b59bd098a5193dabdd8911b1f336f7c328191838892037bfdbeb5a28ba98c",
      "transactionIndex": "0x39",
      "blockHash": "0x00c7a55c648911d2963237ef4177e42c8149dfa7ce21dc56f77c60c4aa2840a6",
      "blockNumber": "0x6246e8",
      "gasUsed": "0xabab",
      "effectiveGasPrice": "0x15c332cdc",
      "from": "0xedc3e3588a5f0bf61c9a6b4ad1e573942d729e16",
      "to": "0xe5fe4821f4e87b284cc51ec92e97febb0736a35f",
      "contractAddress": null
    },
    {
      "status": "0x1",
      "cumulativeGasUsed": "0x816101",
      "logs": [
        {
          "address": "0x09dc969b9ab8d2ed8b1303cf823682b2ae5c209d",
          "topics": [
            "0xddf252ad1be2c89b69c2b068fc378daa952ba7f163c4a11628f55a4df523b3ef",
            "0x0000000000000000000000001481c39bae0883d6f0f060d7514102ad29aa1fc7",
            "0x000000000000000000000000edc3e3588a5f0bf61c9a6b4ad1e573942d729e16"
          ],
          "data": "0x0000000000000000000000000000000000000000000000056bc75e2d63100000",
          "blockHash": "0x00c7a55c648911d2963237ef4177e42c8149dfa7ce21dc56f77c60c4aa2840a6",
          "blockNumber": "0x6246e8",
          "transactionHash": "0x01daba463eca8c65a7ca5b35edc39cce3c9ea044056e06210d53d077c3284d41",
          "transactionIndex": "0x3a",
          "logIndex": "0x6f",
          "removed": false
        }
      ],
      "logsBloom": "0x00000000000000000000000000000000000000000000000000000000000000000000000000000000000000000000800080000000000000000000000000000020000000000000000000000008000000040000000000000000000000000000000000000000000010000000000000000000000000000000000000000012000000000000000000000000000000000000000000000000000000000000000000000000000000000000000000000000000000000000000000000000000000000000000000000002000000000000000000000000000000000000000000000000000000000000000000000400000000000000000000000000000000000000300000000000",
      "type": "0x2",
      "transactionHash": "0x01daba463eca8c65a7ca5b35edc39cce3c9ea044056e06210d53d077c3284d41",
      "transactionIndex": "0x3a",
      "blockHash": "0x00c7a55c648911d2963237ef4177e42c8149dfa7ce21dc56f77c60c4aa2840a6",
      "blockNumber": "0x6246e8",
      "gasUsed": "0x15268",
      "effectiveGasPrice": "0x15c332cdc",
      "from": "0xedc3e3588a5f0bf61c9a6b4ad1e573942d729e16",
      "to": "0x1481c39bae0883d6f0f060d7514102ad29aa1fc7",
      "contractAddress": null
    }
  ],
  "libraries": [],
  "pending": [],
  "returns": {},
  "timestamp": 1722847635,
  "chain": 11155111,
  "commit": "f13bc58"
}