{
  "transactions": [
    {
      "hash": "0xb49f54b6c49fd0bd1f675db2e6b82b3a81cfdb932d7cf12110f57d08a84c5f1b",
      "transactionType": "CREATE",
      "contractName": "BotDetector",
      "contractAddress": "0x9e7d6697f4786651f90ebc19409ca24f86383fe9",
      "function": null,
      "arguments": [
        "0xc8745891DDD546E530CBa67a5cE202ee40CefB35",
        "0xeDc3e3588a5F0bf61c9A6B4ad1e573942d729e16",
        "0x3f63660d7e4b528b140F791147B260304e71244a"
      ],
      "transaction": {
        "from": "0xedc3e3588a5f0bf61c9a6b4ad1e573942d729e16",
        "gas": "0x46312",
        "value": "0x0",
        "input": "0x6080604052348015600f57600080fd5b506040516102ee3803806102ee833981016040819052602c916079565b600080546001600160a01b039485166001600160a01b03199182161790915560028054929094169116179091555060b5565b80516001600160a01b0381168114607457600080fd5b919050565b600080600060608486031215608d57600080fd5b609484605e565b925060a060208501605e565b915060ac60408501605e565b90509250925092565b61022a806100c46000396000f3fe608060405234801561001057600080fd5b506004361061002b5760003560e01c8063220ab6aa14610030575b600080fd5b61004361003e366004610101565b610045565b005b600080806100568460048188610188565b81019061006391906101b2565b60005492955090935091506001600160a01b03908116908216036100e15760025460405163087a43c160e01b81526001600160a01b0388811660048301529091169063087a43c190602401600060405180830381600087803b1580156100c857600080fd5b505af11580156100dc573d6000803e3d6000fd5b505050505b505050505050565b6001600160a01b03811681146100fe57600080fd5b50565b60008060006040848603121561011657600080fd5b8335610121816100e9565b9250602084013567ffffffffffffffff81111561013d57600080fd5b8401601f8101861361014e57600080fd5b803567ffffffffffffffff81111561016557600080fd5b86602082840101111561017757600080fd5b939660209190910195509293505050565b6000808585111561019857600080fd5b838611156101a557600080fd5b5050820193919092039150565b6000806000606084860312156101c757600080fd5b83356101d2816100e9565b92506020840135915060408401356101e9816100e9565b80915050925092509256fea264697066735822122059292e32e7765fa600ca9b505af2130ec796f56e7dbc9a6f6fae35080259e4e664736f6c634300081a0033000000000000000000000000c8745891ddd546e530cba67a5ce202ee40cefb35000000000000000000000000edc3e3588a5f0bf61c9a6b4ad1e573942d729e160000000000000000000000003f63660d7e4b528b140f791147b260304e71244a",
        "nonce": "0xe9",
        "chainId": "0xaa36a7"
      },
      "additionalContracts": [],
      "isFixedGasLimit": false
    },
    {
      "hash": "0x445b43d0ee565380ea7f2caae0188fe88921b1fd530371b06e3a262a4e05aff1",
      "transactionType": "CALL",
      "contractName": null,
      "contractAddress": "0x3f63660d7e4b528b140f791147b260304e71244a",
      "function": "setDetectionBot(address)",
      "arguments": [
        "0x9E7D6697F4786651F90ebc19409CA24f86383fE9"
      ],
      "transaction": {
        "from": "0xedc3e3588a5f0bf61c9a6b4ad1e573942d729e16",
        "to": "0x3f63660d7e4b528b140f791147b260304e71244a",
        "gas": "0xfb10",
        "value": "0x0",
        "input": "0x9e927c680000000000000000000000009e7d6697f4786651f90ebc19409ca24f86383fe9",
        "nonce": "0xea",
        "chainId": "0xaa36a7"
      },
      "additionalContracts": [],
      "isFixedGasLimit": false
    }
  ],
  "receipts": [
    {
      "status": "0x1",
      "cumulativeGasUsed": "0x8ad7b0",
      "logs": [],
      "logsBloom": "0x00000000000000000000000000000000000000000000000000000000000000000000000000000000000000000000000000000000000000000000000000000000000000000000000000000000000000000000000000000000000000000000000000000000000000000000000000000000000000000000000000000000000000000000000000000000000000000000000000000000000000000000000000000000000000000000000000000000000000000000000000000000000000000000000000000000000000000000000000000000000000000000000000000000000000000000000000000000000000000000000000000000000000000000000000000000",
      "type": "0x2",
      "transactionHash": "0xb49f54b6c49fd0bd1f675db2e6b82b3a81cfdb932d7cf12110f57d08a84c5f1b",
      "transactionIndex": "0x32",
      "blockHash": "0x53bcea6986cf554e51d1bd37b4a2c605fdf79c0e3d60c9ca3fd7a8dbc81ad7c9",
      "blockNumber": "0x62476a",
      "gasUsed": "0x3601d",
      "effectiveGasPrice": "0x25c9653a2",
      "from": "0xedc3e3588a5f0bf61c9a6b4ad1e573942d729e16",
      "to": null,
      "contractAddress": "0x9e7d6697f4786651f90ebc19409ca24f86383fe9"
    },
    {
      "status": "0x1",
      "cumulativeGasUsed": "0x8b835b",
      "logs": [],
      "logsBloom": "0x00000000000000000000000000000000000000000000000000000000000000000000000000000000000000000000000000000000000000000000000000000000000000000000000000000000000000000000000000000000000000000000000000000000000000000000000000000000000000000000000000000000000000000000000000000000000000000000000000000000000000000000000000000000000000000000000000000000000000000000000000000000000000000000000000000000000000000000000000000000000000000000000000000000000000000000000000000000000000000000000000000000000000000000000000000000",
      "type": "0x2",
      "transactionHash": "0x445b43d0ee565380ea7f2caae0188fe88921b1fd530371b06e3a262a4e05aff1",
      "transactionIndex": "0x33",
      "blockHash": "0x53bcea6986cf554e51d1bd37b4a2c605fdf79c0e3d60c9ca3fd7a8dbc81ad7c9",
      "blockNumber": "0x62476a",
      "gasUsed": "0xabab",
      "effectiveGasPrice": "0x25c9653a2",
      "from": "0xedc3e3588a5f0bf61c9a6b4ad1e573942d729e16",
      "to": "0x3f63660d7e4b528b140f791147b260304e71244a",
      "contractAddress": null
    }
  ],
  "libraries": [],
  "pending": [],
  "returns": {},
  "timestamp": 1722849351,
  "chain": 11155111,
  "commit": "f13bc58"
}