{
  "transactions": [
    {
      "hash": "0x24610ded2a7b6c40a295aff4cdbde780ce5b969295b07b25e3e6e2109aa3ad62",
      "transactionType": "CALL",
      "contractName": null,
      "contractAddress": "0x8b38c2efef101250826673f3065d87f47ad8ad5a",
      "function": "approve(address,uint256)",
      "arguments": [
        "0x8B38c2eFEF101250826673F3065d87f47aD8aD5a",
        "1000"
      ],
      "transaction": {
        "from": "0xedc3e3588a5f0bf61c9a6b4ad1e573942d729e16",
        "to": "0x8b38c2efef101250826673f3065d87f47ad8ad5a",
        "gas": "0x1ce25",
        "value": "0x0",
        "input": "0x095ea7b30000000000000000000000008b38c2efef101250826673f3065d87f47ad8ad5a00000000000000000000000000000000000000000000000000000000000003e8",
        "nonce": "0xb4",
        "chainId": "0xaa36a7"
      },
      "additionalContracts": [],
      "isFixedGasLimit": false
    },
    {
      "hash": "0xe2023b1f7a7f2a81919be13e552752e6ee6648c59c06e087ef6236a608881eb1",
      "transactionType": "CALL",
      "contractName": null,
      "contractAddress": "0x8b38c2efef101250826673f3065d87f47ad8ad5a",
      "function": "swap(address,address,uint256)",
      "arguments": [
        "0x08FA5d6567d8Fe05a5aD5De4aeDE90Ac00f1E929",
        "0x6cBc79541d6e500397cc16D476b7A58c9121008A",
        "10"
      ],
      "transaction": {
        "from": "0xedc3e3588a5f0bf61c9a6b4ad1e573942d729e16",
        "to": "0x8b38c2efef101250826673f3065d87f47ad8ad5a",
        "gas": "0x1a001",
        "value": "0x0",
        "input": "0xdf791e5000000000000000000000000008fa5d6567d8fe05a5ad5de4aede90ac00f1e9290000000000000000000000006cbc79541d6e500397cc16d476b7a58c9121008a000000000000000000000000000000000000000000000000000000000000000a",
        "nonce": "0xb5",
        "chainId": "0xaa36a7"
      },
      "additionalContracts": [],
      "isFixedGasLimit": false
    },
    {
      "hash": "0x81cbac95fe74ded0039f54b33944572b3916a0bc7484d40db1b94f1abb94011c",
      "transactionType": "CALL",
      "contractName": null,
      "contractAddress": "0x8b38c2efef101250826673f3065d87f47ad8ad5a",
      "function": "swap(address,address,uint256)",
      "arguments": [
        "0x6cBc79541d6e500397cc16D476b7A58c9121008A",
        "0x08FA5d6567d8Fe05a5aD5De4aeDE90Ac00f1E929",
        "20"
      ],
      "transaction": {
        "from": "0xedc3e3588a5f0bf61c9a6b4ad1e573942d729e16",
        "to": "0x8b38c2efef101250826673f3065d87f47ad8ad5a",
        "gas": "0x1ea7d",
        "value": "0x0",
        "input": "0xdf791e500000000000000000000000006cbc79541d6e500397cc16d476b7a58c9121008a00000000000000000000000008fa5d6567d8fe05a5ad5de4aede90ac00f1e9290000000000000000000000000000000000000000000000000000000000000014",
        "nonce": "0xb6",
        "chainId": "0xaa36a7"
      },
      "additionalContracts": [],
      "isFixedGasLimit": false
    },
    {
      "hash": "0x791c1194acb3a2fc554982a8c6b044f34050265cde9319e037356d0af780b11e",
      "transactionType": "CALL",
      "contractName": null,
      "contractAddress": "0x8b38c2efef101250826673f3065d87f47ad8ad5a",
      "function": "swap(address,address,uint256)",
      "arguments": [
        "0x08FA5d6567d8Fe05a5aD5De4aeDE90Ac00f1E929",
        "0x6cBc79541d6e500397cc16D476b7A58c9121008A",
        "24"
      ],
      "transaction": {
        "from": "0xedc3e3588a5f0bf61c9a6b4ad1e573942d729e16",
        "to": "0x8b38c2efef101250826673f3065d87f47ad8ad5a",
        "gas": "0x1e9d0",
        "value": "0x0",
        "input": "0xdf791e5000000000000000000000000008fa5d6567d8fe05a5ad5de4aede90ac00f1e9290000000000000000000000006cbc79541d6e500397cc16d476b7a58c9121008a0000000000000000000000000000000000000000000000000000000000000018",
        "nonce": "0xb7",
        "chainId": "0xaa36a7"
      },
      "additionalContracts": [],
      "isFixedGasLimit": false
    },
    {
      "hash": "0x905ff48104abce940439be56fa63f03afa8ee79089f95d95c2246ef9fb2da5f2",
      "transactionType": "CALL",
      "contractName": null,
      "contractAddress": "0x8b38c2efef101250826673f3065d87f47ad8ad5a",
      "function": "swap(address,address,uint256)",
      "arguments": [
        "0x6cBc79541d6e500397cc16D476b7A58c9121008A",
        "0x08FA5d6567d8Fe05a5aD5De4aeDE90Ac00f1E929",
        "30"
      ],
      "transaction": {
        "from": "0xedc3e3588a5f0bf61c9a6b4ad1e573942d729e16",
        "to": "0x8b38c2efef101250826673f3065d87f47ad8ad5a",
        "gas": "0x1ea7d",
        "value": "0x0",
        "input": "0xdf791e500000000000000000000000006cbc79541d6e500397cc16d476b7a58c9121008a00000000000000000000000008fa5d6567d8fe05a5ad5de4aede90ac00f1e929000000000000000000000000000000000000000000000000000000000000001e",
        "nonce": "0xb8",
        "chainId": "0xaa36a7"
      },
      "additionalContracts": [],
      "isFixedGasLimit": false
    },
    {
      "hash": "0xbe96c476a56a5740a2dadcc2e7ff14fc02275cc344e03d040ce1e1bf3576ef6a",
      "transactionType": "CALL",
      "contractName": null,
      "contractAddress": "0x8b38c2efef101250826673f3065d87f47ad8ad5a",
      "function": "swap(address,address,uint256)",
      "arguments": [
        "0x08FA5d6567d8Fe05a5aD5De4aeDE90Ac00f1E929",
        "0x6cBc79541d6e500397cc16D476b7A58c9121008A",
        "41"
      ],
      "transaction": {
        "from": "0xedc3e3588a5f0bf61c9a6b4ad1e573942d729e16",
        "to": "0x8b38c2efef101250826673f3065d87f47ad8ad5a",
        "gas": "0x1e9d0",
        "value": "0x0",
        "input": "0xdf791e5000000000000000000000000008fa5d6567d8fe05a5ad5de4aede90ac00f1e9290000000000000000000000006cbc79541d6e500397cc16d476b7a58c9121008a0000000000000000000000000000000000000000000000000000000000000029",
        "nonce": "0xb9",
        "chainId": "0xaa36a7"
      },
      "additionalContracts": [],
      "isFixedGasLimit": false
    },
    {
      "hash": "0x6f5dc51d6df13f721e39276fa49b880fcbfb552ca987aa91ffc64a8b345a633b",
      "transactionType": "CALL",
      "contractName": null,
      "contractAddress": "0x8b38c2efef101250826673f3065d87f47ad8ad5a",
      "function": "swap(address,address,uint256)",
      "arguments": [
        "0x6cBc79541d6e500397cc16D476b7A58c9121008A",
        "0x08FA5d6567d8Fe05a5aD5De4aeDE90Ac00f1E929",
        "45"
      ],
      "transaction": {
        "from": "0xedc3e3588a5f0bf61c9a6b4ad1e573942d729e16",
        "to": "0x8b38c2efef101250826673f3065d87f47ad8ad5a",
        "gas": "0x1ea7d",
        "value": "0x0",
        "input": "0xdf791e500000000000000000000000006cbc79541d6e500397cc16d476b7a58c9121008a00000000000000000000000008fa5d6567d8fe05a5ad5de4aede90ac00f1e929000000000000000000000000000000000000000000000000000000000000002d",
        "nonce": "0xba",
        "chainId": "0xaa36a7"
      },
      "additionalContracts": [],
      "isFixedGasLimit": false
    }
  ],
  "receipts": [
    {
      "status": "0x1",
      "cumulativeGasUsed": "0x7a0e19",
      "logs": [
        {
          "address": "0x08fa5d6567d8fe05a5ad5de4aede90ac00f1e929",
          "topics": [
            "0x8c5be1e5ebec7d5bd14f71427d1e84f3dd0314c0f7b2291e5b200ac8c7c3b925",
            "0x000000000000000000000000edc3e3588a5f0bf61c9a6b4ad1e573942d729e16",
            "0x0000000000000000000000008b38c2efef101250826673f3065d87f47ad8ad5a"
          ],
          "data": "0x00000000000000000000000000000000000000000000000000000000000003e8",
          "blockHash": "0x139b8c3b31993937b8423f75a43befd37ee3f8782292019a62b8dd19c3ad01e5",
          "blockNumber": "0x61b465",
          "transactionHash": "0x24610ded2a7b6c40a295aff4cdbde780ce5b969295b07b25e3e6e2109aa3ad62",
          "transactionIndex": "0x3b",
          "logIndex": "0x6f",
          "removed": false
        },
        {
          "address": "0x6cbc79541d6e500397cc16d476b7a58c9121008a",
          "topics": [
            "0x8c5be1e5ebec7d5bd14f71427d1e84f3dd0314c0f7b2291e5b200ac8c7c3b925",
            "0x000000000000000000000000edc3e3588a5f0bf61c9a6b4ad1e573942d729e16",
            "0x0000000000000000000000008b38c2efef101250826673f3065d87f47ad8ad5a"
          ],
          "data": "0x00000000000000000000000000000000000000000000000000000000000003e8",
          "blockHash": "0x139b8c3b31993937b8423f75a43befd37ee3f8782292019a62b8dd19c3ad01e5",
          "blockNumber": "0x61b465",
          "transactionHash": "0x24610ded2a7b6c40a295aff4cdbde780ce5b969295b07b25e3e6e2109aa3ad62",
          "transactionIndex": "0x3b",
          "logIndex": "0x70",
          "removed": false
        }
      ],
      "logsBloom": "0x00010000000000000000000000000000000000000008020000000000000000000000400000000000000000000000000000000000000000000000000000200020000000000000000000000000000000000000000000000000000000000000000000000000000000000000000000001000000000000000000000000002000000000000000000000000000000000000000000000000000000000000000000000000020000000000000040000100000000000000000000000000000000000000000000000000000004000000000000000000000010000000000000000000000000000010000000000400000000000000000000000000000000000000000000000000",
      "type": "0x2",
      "transactionHash": "0x24610ded2a7b6c40a295aff4cdbde780ce5b969295b07b25e3e6e2109aa3ad62",
      "transactionIndex": "0x3b",
      "blockHash": "0x139b8c3b31993937b8423f75a43befd37ee3f8782292019a62b8dd19c3ad01e5",
      "blockNumber": "0x61b465",
      "gasUsed": "0x14e96",
      "effectiveGasPrice": "0x550aaa061",
      "from": "0xedc3e3588a5f0bf61c9a6b4ad1e573942d729e16",
      "to": "0x8b38c2efef101250826673f3065d87f47ad8ad5a",
      "contractAddress": null
    },
    {
      "status": "0x1",
      "cumulativeGasUsed": "0x7b3b48",
      "logs": [
        {
          "address": "0x08fa5d6567d8fe05a5ad5de4aede90ac00f1e929",
          "topics": [
            "0x8c5be1e5ebec7d5bd14f71427d1e84f3dd0314c0f7b2291e5b200ac8c7c3b925",
            "0x000000000000000000000000edc3e3588a5f0bf61c9a6b4ad1e573942d729e16",
            "0x0000000000000000000000008b38c2efef101250826673f3065d87f47ad8ad5a"
          ],
          "data": "0x00000000000000000000000000000000000000000000000000000000000003de",
          "blockHash": "0x139b8c3b31993937b8423f75a43befd37ee3f8782292019a62b8dd19c3ad01e5",
          "blockNumber": "0x61b465",
          "transactionHash": "0xe2023b1f7a7f2a81919be13e552752e6ee6648c59c06e087ef6236a608881eb1",
          "transactionIndex": "0x3c",
          "logIndex": "0x71",
          "removed": false
        },
        {
          "address": "0x08fa5d6567d8fe05a5ad5de4aede90ac00f1e929",
          "topics": [
            "0xddf252ad1be2c89b69c2b068fc378daa952ba7f163c4a11628f55a4df523b3ef",
            "0x000000000000000000000000edc3e3588a5f0bf61c9a6b4ad1e573942d729e16",
            "0x0000000000000000000000008b38c2efef101250826673f3065d87f47ad8ad5a"
          ],
          "data": "0x000000000000000000000000000000000000000000000000000000000000000a",
          "blockHash": "0x139b8c3b31993937b8423f75a43befd37ee3f8782292019a62b8dd19c3ad01e5",
          "blockNumber": "0x61b465",
          "transactionHash": "0xe2023b1f7a7f2a81919be13e552752e6ee6648c59c06e087ef6236a608881eb1",
          "transactionIndex": "0x3c",
          "logIndex": "0x72",
          "removed": false
        },
        {
          "address": "0x6cbc79541d6e500397cc16d476b7a58c9121008a",
          "topics": [
            "0x8c5be1e5ebec7d5bd14f71427d1e84f3dd0314c0f7b2291e5b200ac8c7c3b925",
            "0x0000000000000000000000008b38c2efef101250826673f3065d87f47ad8ad5a",
            "0x0000000000000000000000008b38c2efef101250826673f3065d87f47ad8ad5a"
          ],
          "data": "0x000000000000000000000000000000000000000000000000000000000000000a",
          "blockHash": "0x139b8c3b31993937b8423f75a43befd37ee3f8782292019a62b8dd19c3ad01e5",
          "blockNumber": "0x61b465",
          "transactionHash": "0xe2023b1f7a7f2a81919be13e552752e6ee6648c59c06e087ef6236a608881eb1",
          "transactionIndex": "0x3c",
          "logIndex": "0x73",
          "removed": false
        },
        {
          "address": "0x6cbc79541d6e500397cc16d476b7a58c9121008a",
          "topics": [
            "0x8c5be1e5ebec7d5bd14f71427d1e84f3dd0314c0f7b2291e5b200ac8c7c3b925",
            "0x0000000000000000000000008b38c2efef101250826673f3065d87f47ad8ad5a",
            "0x0000000000000000000000008b38c2efef101250826673f3065d87f47ad8ad5a"
          ],
          "data": "0x0000000000000000000000000000000000000000000000000000000000000000",
          "blockHash": "0x139b8c3b31993937b8423f75a43befd37ee3f8782292019a62b8dd19c3ad01e5",
          "blockNumber": "0x61b465",
          "transactionHash": "0xe2023b1f7a7f2a81919be13e552752e6ee6648c59c06e087ef6236a608881eb1",
          "transactionIndex": "0x3c",
          "logIndex": "0x74",
          "removed": false
        },
        {
          "address": "0x6cbc79541d6e500397cc16d476b7a58c9121008a",
          "topics": [
            "0xddf252ad1be2c89b69c2b068fc378daa952ba7f163c4a11628f55a4df523b3ef",
            "0x0000000000000000000000008b38c2efef101250826673f3065d87f47ad8ad5a",
            "0x000000000000000000000000edc3e3588a5f0bf61c9a6b4ad1e573942d729e16"
          ],
          "data": "0x000000000000000000000000000000000000000000000000000000000000000a",
          "blockHash": "0x139b8c3b31993937b8423f75a43befd37ee3f8782292019a62b8dd19c3ad01e5",
          "blockNumber": "0x61b465",
          "transactionHash": "0xe2023b1f7a7f2a81919be13e552752e6ee6648c59c06e087ef6236a608881eb1",
          "transactionIndex": "0x3c",
          "logIndex": "0x75",
          "removed": false
        }
      ],
      "logsBloom": "0x00010000000000000000000000000000000000000008020000000000000000000000400000000000000000000000000000000000000000000000000000200020000000000000000000000008000000000000000000000000000000000000000000000000000000000000000000001000000000000000000000000012000000000000000000000000000000000000000000000000000000000000000000000000020000000000000040000100000000000000000000000000000000000000000000000002000004000000000000000000000010000000000000000000000000000010000000000400000000000000000000000000000000000000000000000000",
      "type": "0x2",
      "transactionHash": "0xe2023b1f7a7f2a81919be13e552752e6ee6648c59c06e087ef6236a608881eb1",
      "transactionIndex": "0x3c",
      "blockHash": "0x139b8c3b31993937b8423f75a43befd37ee3f8782292019a62b8dd19c3ad01e5",
      "blockNumber": "0x61b465",
      "gasUsed": "0x12d2f",
      "effectiveGasPrice": "0x550aaa061",
      "from": "0xedc3e3588a5f0bf61c9a6b4ad1e573942d729e16",
      "to": "0x8b38c2efef101250826673f3065d87f47ad8ad5a",
      "contractAddress": null
    },
    {
      "status": "0x1",
      "cumulativeGasUsed": "0x7c9e64",
      "logs": [
        {
          "address": "0x6cbc79541d6e500397cc16d476b7a58c9121008a",
          "topics": [
            "0x8c5be1e5ebec7d5bd14f71427d1e84f3dd0314c0f7b2291e5b200ac8c7c3b925",
            "0x000000000000000000000000edc3e3588a5f0bf61c9a6b4ad1e573942d729e16",
            "0x0000000000000000000000008b38c2efef101250826673f3065d87f47ad8ad5a"
          ],
          "data": "0x00000000000000000000000000000000000000000000000000000000000003d4",
          "blockHash": "0x139b8c3b31993937b8423f75a43befd37ee3f8782292019a62b8dd19c3ad01e5",
          "blockNumber": "0x61b465",
          "transactionHash": "0x81cbac95fe74ded0039f54b33944572b3916a0bc7484d40db1b94f1abb94011c",
          "transactionIndex": "0x3d",
          "logIndex": "0x76",
          "removed": false
        },
        {
          "address": "0x6cbc79541d6e500397cc16d476b7a58c9121008a",
          "topics": [
            "0xddf252ad1be2c89b69c2b068fc378daa952ba7f163c4a11628f55a4df523b3ef",
            "0x000000000000000000000000edc3e3588a5f0bf61c9a6b4ad1e573942d729e16",
            "0x0000000000000000000000008b38c2efef101250826673f3065d87f47ad8ad5a"
          ],
          "data": "0x0000000000000000000000000000000000000000000000000000000000000014",
          "blockHash": "0x139b8c3b31993937b8423f75a43befd37ee3f8782292019a62b8dd19c3ad01e5",
          "blockNumber": "0x61b465",
          "transactionHash": "0x81cbac95fe74ded0039f54b33944572b3916a0bc7484d40db1b94f1abb94011c",
          "transactionIndex": "0x3d",
          "logIndex": "0x77",
          "removed": false
        },
        {
          "address": "0x08fa5d6567d8fe05a5ad5de4aede90ac00f1e929",
          "topics": [
            "0x8c5be1e5ebec7d5bd14f71427d1e84f3dd0314c0f7b2291e5b200ac8c7c3b925",
            "0x0000000000000000000000008b38c2efef101250826673f3065d87f47ad8ad5a",
            "0x0000000000000000000000008b38c2efef101250826673f3065d87f47ad8ad5a"
          ],
          "data": "0x0000000000000000000000000000000000000000000000000000000000000018",
          "blockHash": "0x139b8c3b31993937b8423f75a43befd37ee3f8782292019a62b8dd19c3ad01e5",
          "blockNumber": "0x61b465",
          "transactionHash": "0x81cbac95fe74ded0039f54b33944572b3916a0bc7484d40db1b94f1abb94011c",
          "transactionIndex": "0x3d",
          "logIndex": "0x78",
          "removed": false
        },
        {
          "address": "0x08fa5d6567d8fe05a5ad5de4aede90ac00f1e929",
          "topics": [
            "0x8c5be1e5ebec7d5bd14f71427d1e84f3dd0314c0f7b2291e5b200ac8c7c3b925",
            "0x0000000000000000000000008b38c2efef101250826673f3065d87f47ad8ad5a",
            "0x0000000000000000000000008b38c2efef101250826673f3065d87f47ad8ad5a"
          ],
          "data": "0x0000000000000000000000000000000000000000000000000000000000000000",
          "blockHash": "0x139b8c3b31993937b8423f75a43befd37ee3f8782292019a62b8dd19c3ad01e5",
          "blockNumber": "0x61b465",
          "transactionHash": "0x81cbac95fe74ded0039f54b33944572b3916a0bc7484d40db1b94f1abb94011c",
          "transactionIndex": "0x3d",
          "logIndex": "0x79",
          "removed": false
        },
        {
          "address": "0x08fa5d6567d8fe05a5ad5de4aede90ac00f1e929",
          "topics": [
            "0xddf252ad1be2c89b69c2b068fc378daa952ba7f163c4a11628f55a4df523b3ef",
            "0x0000000000000000000000008b38c2efef101250826673f3065d87f47ad8ad5a",
            "0x000000000000000000000000edc3e3588a5f0bf61c9a6b4ad1e573942d729e16"
          ],
          "data": "0x0000000000000000000000000000000000000000000000000000000000000018",
          "blockHash": "0x139b8c3b31993937b8423f75a43befd37ee3f8782292019a62b8dd19c3ad01e5",
          "blockNumber": "0x61b465",
          "transactionHash": "0x81cbac95fe74ded0039f54b33944572b3916a0bc7484d40db1b94f1abb94011c",
          "transactionIndex": "0x3d",
          "logIndex": "0x7a",
          "removed": false
        }
      ],
      "logsBloom": "0x00010000000000000000000000000000000000000008020000000000000000000000400000000000000000000000000000000000000000000000000000200020000000000000000000000008000000000000000000000000000000000000000000000000000000000000000000001000000000000000000000000012000000000000000000000000000000000000000000000000000000000000000000000000020000000000000040000100000000000000000000000000000000000000000000000002000004000000000000000000000010000000000000000000000000000010000000000400000000000000000000000000000000000000000000000000",
      "type": "0x2",
      "transactionHash": "0x81cbac95fe74ded0039f54b33944572b3916a0bc7484d40db1b94f1abb94011c",
      "transactionIndex": "0x3d",
      "blockHash": "0x139b8c3b31993937b8423f75a43befd37ee3f8782292019a62b8dd19c3ad01e5",
      "blockNumber": "0x61b465",
      "gasUsed": "0x1631c",
      "effectiveGasPrice": "0x550aaa061",
      "from": "0xedc3e3588a5f0bf61c9a6b4ad1e573942d729e16",
      "to": "0x8b38c2efef101250826673f3065d87f47ad8ad5a",
      "contractAddress": null
    },
    {
      "status": "0x1",
      "cumulativeGasUsed": "0x7e0103",
      "logs": [
        {
          "address": "0x08fa5d6567d8fe05a5ad5de4aede90ac00f1e929",
          "topics": [
            "0x8c5be1e5ebec7d5bd14f71427d1e84f3dd0314c0f7b2291e5b200ac8c7c3b925",
            "0x000000000000000000000000edc3e3588a5f0bf61c9a6b4ad1e573942d729e16",
            "0x0000000000000000000000008b38c2efef101250826673f3065d87f47ad8ad5a"
          ],
          "data": "0x00000000000000000000000000000000000000000000000000000000000003c6",
          "blockHash": "0x139b8c3b31993937b8423f75a43befd37ee3f8782292019a62b8dd19c3ad01e5",
          "blockNumber": "0x61b465",
          "transactionHash": "0x791c1194acb3a2fc554982a8c6b044f34050265cde9319e037356d0af780b11e",
          "transactionIndex": "0x3e",
          "logIndex": "0x7b",
          "removed": false
        },
        {
          "address": "0x08fa5d6567d8fe05a5ad5de4aede90ac00f1e929",
          "topics": [
            "0xddf252ad1be2c89b69c2b068fc378daa952ba7f163c4a11628f55a4df523b3ef",
            "0x000000000000000000000000edc3e3588a5f0bf61c9a6b4ad1e573942d729e16",
            "0x0000000000000000000000008b38c2efef101250826673f3065d87f47ad8ad5a"
          ],
          "data": "0x0000000000000000000000000000000000000000000000000000000000000018",
          "blockHash": "0x139b8c3b31993937b8423f75a43befd37ee3f8782292019a62b8dd19c3ad01e5",
          "blockNumber": "0x61b465",
          "transactionHash": "0x791c1194acb3a2fc554982a8c6b044f34050265cde9319e037356d0af780b11e",
          "transactionIndex": "0x3e",
          "logIndex": "0x7c",
          "removed": false
        },
        {
          "address": "0x6cbc79541d6e500397cc16d476b7a58c9121008a",
          "topics": [
            "0x8c5be1e5ebec7d5bd14f71427d1e84f3dd0314c0f7b2291e5b200ac8c7c3b925",
            "0x0000000000000000000000008b38c2efef101250826673f3065d87f47ad8ad5a",
            "0x0000000000000000000000008b38c2efef101250826673f3065d87f47ad8ad5a"
          ],
          "data": "0x000000000000000000000000000000000000000000000000000000000000001e",
          "blockHash": "0x139b8c3b31993937b8423f75a43befd37ee3f8782292019a62b8dd19c3ad01e5",
          "blockNumber": "0x61b465",
          "transactionHash": "0x791c1194acb3a2fc554982a8c6b044f34050265cde9319e037356d0af780b11e",
          "transactionIndex": "0x3e",
          "logIndex": "0x7d",
          "removed": false
        },
        {
          "address": "0x6cbc79541d6e500397cc16d476b7a58c9121008a",
          "topics": [
            "0x8c5be1e5ebec7d5bd14f71427d1e84f3dd0314c0f7b2291e5b200ac8c7c3b925",
            "0x0000000000000000000000008b38c2efef101250826673f3065d87f47ad8ad5a",
            "0x0000000000000000000000008b38c2efef101250826673f3065d87f47ad8ad5a"
          ],
          "data": "0x0000000000000000000000000000000000000000000000000000000000000000",
          "blockHash": "0x139b8c3b31993937b8423f75a43befd37ee3f8782292019a62b8dd19c3ad01e5",
          "blockNumber": "0x61b465",
          "transactionHash": "0x791c1194acb3a2fc554982a8c6b044f34050265cde9319e037356d0af780b11e",
          "transactionIndex": "0x3e",
          "logIndex": "0x7e",
          "removed": false
        },
        {
          "address": "0x6cbc79541d6e500397cc16d476b7a58c9121008a",
          "topics": [
            "0xddf252ad1be2c89b69c2b068fc378daa952ba7f163c4a11628f55a4df523b3ef",
            "0x0000000000000000000000008b38c2efef101250826673f3065d87f47ad8ad5a",
            "0x000000000000000000000000edc3e3588a5f0bf61c9a6b4ad1e573942d729e16"
          ],
          "data": "0x000000000000000000000000000000000000000000000000000000000000001e",
          "blockHash": "0x139b8c3b31993937b8423f75a43befd37ee3f8782292019a62b8dd19c3ad01e5",
          "blockNumber": "0x61b465",
          "transactionHash": "0x791c1194acb3a2fc554982a8c6b044f34050265cde9319e037356d0af780b11e",
          "transactionIndex": "0x3e",
          "logIndex": "0x7f",
          "removed": false
        }
      ],
      "logsBloom": "0x00010000000000000000000000000000000000000008020000000000000000000000400000000000000000000000000000000000000000000000000000200020000000000000000000000008000000000000000000000000000000000000000000000000000000000000000000001000000000000000000000000012000000000000000000000000000000000000000000000000000000000000000000000000020000000000000040000100000000000000000000000000000000000000000000000002000004000000000000000000000010000000000000000000000000000010000000000400000000000000000000000000000000000000000000000000",
      "type": "0x2",
      "transactionHash": "0x791c1194acb3a2fc554982a8c6b044f34050265cde9319e037356d0af780b11e",
      "transactionIndex": "0x3e",
      "blockHash": "0x139b8c3b31993937b8423f75a43befd37ee3f8782292019a62b8dd19c3ad01e5",
      "blockNumber": "0x61b465",
      "gasUsed": "0x1629f",
      "effectiveGasPrice": "0x550aaa061",
      "from": "0xedc3e3588a5f0bf61c9a6b4ad1e573942d729e16",
      "to": "0x8b38c2efef101250826673f3065d87f47ad8ad5a",
      "contractAddress": null
    },
    {
      "status": "0x1",
      "cumulativeGasUsed": "0x7f641f",
      "logs": [
        {
          "address": "0x6cbc79541d6e500397cc16d476b7a58c9121008a",
          "topics": [
            "0x8c5be1e5ebec7d5bd14f71427d1e84f3dd0314c0f7b2291e5b200ac8c7c3b925",
            "0x000000000000000000000000edc3e3588a5f0bf61c9a6b4ad1e573942d729e16",
            "0x0000000000000000000000008b38c2efef101250826673f3065d87f47ad8ad5a"
          ],
          "data": "0x00000000000000000000000000000000000000000000000000000000000003b6",
          "blockHash": "0x139b8c3b31993937b8423f75a43befd37ee3f8782292019a62b8dd19c3ad01e5",
          "blockNumber": "0x61b465",
          "transactionHash": "0x905ff48104abce940439be56fa63f03afa8ee79089f95d95c2246ef9fb2da5f2",
          "transactionIndex": "0x3f",
          "logIndex": "0x80",
          "removed": false
        },
        {
          "address": "0x6cbc79541d6e500397cc16d476b7a58c9121008a",
          "topics": [
            "0xddf252ad1be2c89b69c2b068fc378daa952ba7f163c4a11628f55a4df523b3ef",
            "0x000000000000000000000000edc3e3588a5f0bf61c9a6b4ad1e573942d729e16",
            "0x0000000000000000000000008b38c2efef101250826673f3065d87f47ad8ad5a"
          ],
          "data": "0x000000000000000000000000000000000000000000000000000000000000001e",
          "blockHash": "0x139b8c3b31993937b8423f75a43befd37ee3f8782292019a62b8dd19c3ad01e5",
          "blockNumber": "0x61b465",
          "transactionHash": "0x905ff48104abce940439be56fa63f03afa8ee79089f95d95c2246ef9fb2da5f2",
          "transactionIndex": "0x3f",
          "logIndex": "0x81",
          "removed": false
        },
        {
          "address": "0x08fa5d6567d8fe05a5ad5de4aede90ac00f1e929",
          "topics": [
            "0x8c5be1e5ebec7d5bd14f71427d1e84f3dd0314c0f7b2291e5b200ac8c7c3b925",
            "0x0000000000000000000000008b38c2efef101250826673f3065d87f47ad8ad5a",
            "0x0000000000000000000000008b38c2efef101250826673f3065d87f47ad8ad5a"
          ],
          "data": "0x0000000000000000000000000000000000000000000000000000000000000029",
          "blockHash": "0x139b8c3b31993937b8423f75a43befd37ee3f8782292019a62b8dd19c3ad01e5",
          "blockNumber": "0x61b465",
          "transactionHash": "0x905ff48104abce940439be56fa63f03afa8ee79089f95d95c2246ef9fb2da5f2",
          "transactionIndex": "0x3f",
          "logIndex": "0x82",
          "removed": false
        },
        {
          "address": "0x08fa5d6567d8fe05a5ad5de4aede90ac00f1e929",
          "topics": [
            "0x8c5be1e5ebec7d5bd14f71427d1e84f3dd0314c0f7b2291e5b200ac8c7c3b925",
            "0x0000000000000000000000008b38c2efef101250826673f3065d87f47ad8ad5a",
            "0x0000000000000000000000008b38c2efef101250826673f3065d87f47ad8ad5a"
          ],
          "data": "0x0000000000000000000000000000000000000000000000000000000000000000",
          "blockHash": "0x139b8c3b31993937b8423f75a43befd37ee3f8782292019a62b8dd19c3ad01e5",
          "blockNumber": "0x61b465",
          "transactionHash": "0x905ff48104abce940439be56fa63f03afa8ee79089f95d95c2246ef9fb2da5f2",
          "transactionIndex": "0x3f",
          "logIndex": "0x83",
          "removed": false
        },
        {
          "address": "0x08fa5d6567d8fe05a5ad5de4aede90ac00f1e929",
          "topics": [
            "0xddf252ad1be2c89b69c2b068fc378daa952ba7f163c4a11628f55a4df523b3ef",
            "0x0000000000000000000000008b38c2efef101250826673f3065d87f47ad8ad5a",
            "0x000000000000000000000000edc3e3588a5f0bf61c9a6b4ad1e573942d729e16"
          ],
          "data": "0x0000000000000000000000000000000000000000000000000000000000000029",
          "blockHash": "0x139b8c3b31993937b8423f75a43befd37ee3f8782292019a62b8dd19c3ad01e5",
          "blockNumber": "0x61b465",
          "transactionHash": "0x905ff48104abce940439be56fa63f03afa8ee79089f95d95c2246ef9fb2da5f2",
          "transactionIndex": "0x3f",
          "logIndex": "0x84",
          "removed": false
        }
      ],
      "logsBloom": "0x00010000000000000000000000000000000000000008020000000000000000000000400000000000000000000000000000000000000000000000000000200020000000000000000000000008000000000000000000000000000000000000000000000000000000000000000000001000000000000000000000000012000000000000000000000000000000000000000000000000000000000000000000000000020000000000000040000100000000000000000000000000000000000000000000000002000004000000000000000000000010000000000000000000000000000010000000000400000000000000000000000000000000000000000000000000",
      "type": "0x2",
      "transactionHash": "0x905ff48104abce940439be56fa63f03afa8ee79089f95d95c2246ef9fb2da5f2",
      "transactionIndex": "0x3f",
      "blockHash": "0x139b8c3b31993937b8423f75a43befd37ee3f8782292019a62b8dd19c3ad01e5",
      "blockNumber": "0x61b465",
      "gasUsed": "0x1631c",
      "effectiveGasPrice": "0x550aaa061",
      "from": "0xedc3e3588a5f0bf61c9a6b4ad1e573942d729e16",
      "to": "0x8b38c2efef101250826673f3065d87f47ad8ad5a",
      "contractAddress": null
    },
    {
      "status": "0x1",
      "cumulativeGasUsed": "0x80c6be",
      "logs": [
        {
          "address": "0x08fa5d6567d8fe05a5ad5de4aede90ac00f1e929",
          "topics": [
            "0x8c5be1e5ebec7d5bd14f71427d1e84f3dd0314c0f7b2291e5b200ac8c7c3b925",
            "0x000000000000000000000000edc3e3588a5f0bf61c9a6b4ad1e573942d729e16",
            "0x0000000000000000000000008b38c2efef101250826673f3065d87f47ad8ad5a"
          ],
          "data": "0x000000000000000000000000000000000000000000000000000000000000039d",
          "blockHash": "0x139b8c3b31993937b8423f75a43befd37ee3f8782292019a62b8dd19c3ad01e5",
          "blockNumber": "0x61b465",
          "transactionHash": "0xbe96c476a56a5740a2dadcc2e7ff14fc02275cc344e03d040ce1e1bf3576ef6a",
          "transactionIndex": "0x40",
          "logIndex": "0x85",
          "removed": false
        },
        {
          "address": "0x08fa5d6567d8fe05a5ad5de4aede90ac00f1e929",
          "topics": [
            "0xddf252ad1be2c89b69c2b068fc378daa952ba7f163c4a11628f55a4df523b3ef",
            "0x000000000000000000000000edc3e3588a5f0bf61c9a6b4ad1e573942d729e16",
            "0x0000000000000000000000008b38c2efef101250826673f3065d87f47ad8ad5a"
          ],
          "data": "0x0000000000000000000000000000000000000000000000000000000000000029",
          "blockHash": "0x139b8c3b31993937b8423f75a43befd37ee3f8782292019a62b8dd19c3ad01e5",
          "blockNumber": "0x61b465",
          "transactionHash": "0xbe96c476a56a5740a2dadcc2e7ff14fc02275cc344e03d040ce1e1bf3576ef6a",
          "transactionIndex": "0x40",
          "logIndex": "0x86",
          "removed": false
        },
        {
          "address": "0x6cbc79541d6e500397cc16d476b7a58c9121008a",
          "topics": [
            "0x8c5be1e5ebec7d5bd14f71427d1e84f3dd0314c0f7b2291e5b200ac8c7c3b925",
            "0x0000000000000000000000008b38c2efef101250826673f3065d87f47ad8ad5a",
            "0x0000000000000000000000008b38c2efef101250826673f3065d87f47ad8ad5a"
          ],
          "data": "0x0000000000000000000000000000000000000000000000000000000000000041",
          "blockHash": "0x139b8c3b31993937b8423f75a43befd37ee3f8782292019a62b8dd19c3ad01e5",
          "blockNumber": "0x61b465",
          "transactionHash": "0xbe96c476a56a5740a2dadcc2e7ff14fc02275cc344e03d040ce1e1bf3576ef6a",
          "transactionIndex": "0x40",
          "logIndex": "0x87",
          "removed": false
        },
        {
          "address": "0x6cbc79541d6e500397cc16d476b7a58c9121008a",
          "topics": [
            "0x8c5be1e5ebec7d5bd14f71427d1e84f3dd0314c0f7b2291e5b200ac8c7c3b925",
            "0x0000000000000000000000008b38c2efef101250826673f3065d87f47ad8ad5a",
            "0x0000000000000000000000008b38c2efef101250826673f3065d87f47ad8ad5a"
          ],
          "data": "0x0000000000000000000000000000000000000000000000000000000000000000",
          "blockHash": "0x139b8c3b31993937b8423f75a43befd37ee3f8782292019a62b8dd19c3ad01e5",
          "blockNumber": "0x61b465",
          "transactionHash": "0xbe96c476a56a5740a2dadcc2e7ff14fc02275cc344e03d040ce1e1bf3576ef6a",
          "transactionIndex": "0x40",
          "logIndex": "0x88",
          "removed": false
        },
        {
          "address": "0x6cbc79541d6e500397cc16d476b7a58c9121008a",
          "topics": [
            "0xddf252ad1be2c89b69c2b068fc378daa952ba7f163c4a11628f55a4df523b3ef",
            "0x0000000000000000000000008b38c2efef101250826673f3065d87f47ad8ad5a",
            "0x000000000000000000000000edc3e3588a5f0bf61c9a6b4ad1e573942d729e16"
          ],
          "data": "0x0000000000000000000000000000000000000000000000000000000000000041",
          "blockHash": "0x139b8c3b31993937b8423f75a43befd37ee3f8782292019a62b8dd19c3ad01e5",
          "blockNumber": "0x61b465",
          "transactionHash": "0xbe96c476a56a5740a2dadcc2e7ff14fc02275cc344e03d040ce1e1bf3576ef6a",
          "transactionIndex": "0x40",
          "logIndex": "0x89",
          "removed": false
        }
      ],
      "logsBloom": "0x00010000000000000000000000000000000000000008020000000000000000000000400000000000000000000000000000000000000000000000000000200020000000000000000000000008000000000000000000000000000000000000000000000000000000000000000000001000000000000000000000000012000000000000000000000000000000000000000000000000000000000000000000000000020000000000000040000100000000000000000000000000000000000000000000000002000004000000000000000000000010000000000000000000000000000010000000000400000000000000000000000000000000000000000000000000",
      "type": "0x2",
      "transactionHash": "0xbe96c476a56a5740a2dadcc2e7ff14fc02275cc344e03d040ce1e1bf3576ef6a",
      "transactionIndex": "0x40",
      "blockHash": "0x139b8c3b31993937b8423f75a43befd37ee3f8782292019a62b8dd19c3ad01e5",
      "blockNumber": "0x61b465",
      "gasUsed": "0x1629f",
      "effectiveGasPrice": "0x550aaa061",
      "from": "0xedc3e3588a5f0bf61c9a6b4ad1e573942d729e16",
      "to": "0x8b38c2efef101250826673f3065d87f47ad8ad5a",
      "contractAddress": null
    },
    {
      "status": "0x1",
      "cumulativeGasUsed": "0x8229da",
      "logs": [
        {
          "address": "0x6cbc79541d6e500397cc16d476b7a58c9121008a",
          "topics": [
            "0x8c5be1e5ebec7d5bd14f71427d1e84f3dd0314c0f7b2291e5b200ac8c7c3b925",
            "0x000000000000000000000000edc3e3588a5f0bf61c9a6b4ad1e573942d729e16",
            "0x0000000000000000000000008b38c2efef101250826673f3065d87f47ad8ad5a"
          ],
          "data": "0x0000000000000000000000000000000000000000000000000000000000000389",
          "blockHash": "0x139b8c3b31993937b8423f75a43befd37ee3f8782292019a62b8dd19c3ad01e5",
          "blockNumber": "0x61b465",
          "transactionHash": "0x6f5dc51d6df13f721e39276fa49b880fcbfb552ca987aa91ffc64a8b345a633b",
          "transactionIndex": "0x41",
          "logIndex": "0x8a",
          "removed": false
        },
        {
          "address": "0x6cbc79541d6e500397cc16d476b7a58c9121008a",
          "topics": [
            "0xddf252ad1be2c89b69c2b068fc378daa952ba7f163c4a11628f55a4df523b3ef",
            "0x000000000000000000000000edc3e3588a5f0bf61c9a6b4ad1e573942d729e16",
            "0x0000000000000000000000008b38c2efef101250826673f3065d87f47ad8ad5a"
          ],
          "data": "0x000000000000000000000000000000000000000000000000000000000000002d",
          "blockHash": "0x139b8c3b31993937b8423f75a43befd37ee3f8782292019a62b8dd19c3ad01e5",
          "blockNumber": "0x61b465",
          "transactionHash": "0x6f5dc51d6df13f721e39276fa49b880fcbfb552ca987aa91ffc64a8b345a633b",
          "transactionIndex": "0x41",
          "logIndex": "0x8b",
          "removed": false
        },
        {
          "address": "0x08fa5d6567d8fe05a5ad5de4aede90ac00f1e929",
          "topics": [
            "0x8c5be1e5ebec7d5bd14f71427d1e84f3dd0314c0f7b2291e5b200ac8c7c3b925",
            "0x0000000000000000000000008b38c2efef101250826673f3065d87f47ad8ad5a",
            "0x0000000000000000000000008b38c2efef101250826673f3065d87f47ad8ad5a"
          ],
          "data": "0x000000000000000000000000000000000000000000000000000000000000006e",
          "blockHash": "0x139b8c3b31993937b8423f75a43befd37ee3f8782292019a62b8dd19c3ad01e5",
          "blockNumber": "0x61b465",
          "transactionHash": "0x6f5dc51d6df13f721e39276fa49b880fcbfb552ca987aa91ffc64a8b345a633b",
          "transactionIndex": "0x41",
          "logIndex": "0x8c",
          "removed": false
        },
        {
          "address": "0x08fa5d6567d8fe05a5ad5de4aede90ac00f1e929",
          "topics": [
            "0x8c5be1e5ebec7d5bd14f71427d1e84f3dd0314c0f7b2291e5b200ac8c7c3b925",
            "0x0000000000000000000000008b38c2efef101250826673f3065d87f47ad8ad5a",
            "0x0000000000000000000000008b38c2efef101250826673f3065d87f47ad8ad5a"
          ],
          "data": "0x0000000000000000000000000000000000000000000000000000000000000000",
          "blockHash": "0x139b8c3b31993937b8423f75a43befd37ee3f8782292019a62b8dd19c3ad01e5",
          "blockNumber": "0x61b465",
          "transactionHash": "0x6f5dc51d6df13f721e39276fa49b880fcbfb552ca987aa91ffc64a8b345a633b",
          "transactionIndex": "0x41",
          "logIndex": "0x8d",
          "removed": false
        },
        {
          "address": "0x08fa5d6567d8fe05a5ad5de4aede90ac00f1e929",
          "topics": [
            "0xddf252ad1be2c89b69c2b068fc378daa952ba7f163c4a11628f55a4df523b3ef",
            "0x0000000000000000000000008b38c2efef101250826673f3065d87f47ad8ad5a",
            "0x000000000000000000000000edc3e3588a5f0bf61c9a6b4ad1e573942d729e16"
          ],
          "data": "0x000000000000000000000000000000000000000000000000000000000000006e",
          "blockHash": "0x139b8c3b31993937b8423f75a43befd37ee3f8782292019a62b8dd19c3ad01e5",
          "blockNumber": "0x61b465",
          "transactionHash": "0x6f5dc51d6df13f721e39276fa49b880fcbfb552ca987aa91ffc64a8b345a633b",
          "transactionIndex": "0x41",
          "logIndex": "0x8e",
          "removed": false
        }
      ],
      "logsBloom": "0x00010000000000000000000000000000000000000008020000000000000000000000400000000000000000000000000000000000000000000000000000200020000000000000000000000008000000000000000000000000000000000000000000000000000000000000000000001000000000000000000000000012000000000000000000000000000000000000000000000000000000000000000000000000020000000000000040000100000000000000000000000000000000000000000000000002000004000000000000000000000010000000000000000000000000000010000000000400000000000000000000000000000000000000000000000000",
      "type": "0x2",
      "transactionHash": "0x6f5dc51d6df13f721e39276fa49b880fcbfb552ca987aa91ffc64a8b345a633b",
      "transactionIndex": "0x41",
      "blockHash": "0x139b8c3b31993937b8423f75a43befd37ee3f8782292019a62b8dd19c3ad01e5",
      "blockNumber": "0x61b465",
      "gasUsed": "0x1631c",
      "effectiveGasPrice": "0x550aaa061",
      "from": "0xedc3e3588a5f0bf61c9a6b4ad1e573942d729e16",
      "to": "0x8b38c2efef101250826673f3065d87f47ad8ad5a",
      "contractAddress": null
    }
  ],
  "libraries": [],
  "pending": [],
  "returns": {},
  "timestamp": 1722336665,
  "chain": 11155111,
  "commit": "f13bc58"
}